S01700004449595265666C6F774F76656E56312E7372656399
S214000000A3C50000C7C50000C5C50000C3C50000E5
S214000010C1C50000BFC50000BDC50000BBC50000CF
S214000020B9C50000B7C50000B5C50000B3C50000DF
S214000030B1C50000AFC500000C949E13ABC5000010
S214000040A9C50000A7C50000A5C50000A3C50000FF
S214000050A1C500009FC500009DC500009BC500000F
S21400006099C5000097C5000095C5000093C500001F
S21400007091C500008FC500008DC500008BC500002F
S21400008089C5000087C5000085C5000083C500003F
S21400009081C500007FC500007DC500007BC500004F
S2140000A079C5000077C5000075C5000073C500005F
S2140000B071C500006FC500006DC500006BC500006F
S2140000C069C5000067C5000065C5000063C500007F
S2140000D061C500005FC500005DC500005BC500008F
S2140000E059C5000057C5000055C5000053C500009F
S2140000F051C500004FC500004DC500004BC50000AF
S21400010049C5000047C5000045C5000043C50000BE
S21400011041C500003FC500003DC500003BC50000CE
S21400012039C5000037C5000035C5000033C50000DE
S21400013031C500002FC500002DC500002BC50000EE
S21400014029C5000027C5000025C5000023C50000FE
S21400015021C500001FC500001DC500001BC500000E
S21400016019C5000017C5000015C5000013C500001E
S21400017011C500000FC500000DC500000BC500002E
S21400018009C5000007C5000005C5000003C500003E
S21400019001C50000FFC40000FDC40000FBC4000051
S2140001A0F9C40000F7C40000F5C40000F3C4000062
S2140001B0F1C40000EFC40000EDC40000EBC4000072
S2140001C0E9C40000E7C40000E5C40000E3C4000082
S2140001D0E1C40000DFC40000DDC40000DBC4000092
S2140001E0D9C40000D7C40000D5C40000D3C40000A2
S2140001F0D1C400000C948E2E0C94512F7E29812998
S214000200842987298A298D2990290D0A004154427C
S2140002104C45444F46462028652920426C7565208B
S2140002204C4544204F66660D0A004154424C4544F6
S2140002304F4E2028652920426C7565204C45442089
S2140002404F6E0D0A004154474C45444F4646202801
S214000250652920477265656E204C4544204F6666CA
S2140002600D0A004154474C45444F4E20286529202E
S214000270477265656E204C4544204F6E0D0A00415E
S21400028054524C45444F4646202865292052656402
S214000290204C6564204F66660D0A004154524C455A
S2140002A0444F4E2028652920526564204C65642002
S2140002B04F6E0D0A00415442555A5A45524F464613
S2140002C0202865292042757A7A6572204F66660D69
S2140002D00A00415442555A5A45524F4E2028652925
S2140002E02042757A7A6572204F6E0D0A0041544698
S2140002F0414E4F4646202865292046616E204F66AF
S214000300660D0A00415446414E4F4E20286529206E
S21400031046616E204F6E0D0A004154424F54544FB2
S2140003204D484541544F46462028652920426F7463
S214000330746F6D20486561746572204F66660D0A9D
S214000340004154424F54544F4D484541544F4E205F
S21400035028652920426F74746F6D20486561746546
S21400036072204F6E0D0A004154544F504845415478
S2140003704F46462028652920546F702048656174D2
S2140003806572204F66660D0A004154544F5048452A
S21400039041544F4E2028652920546F7020486561CF
S2140003A0746572204F6E0D0A002A54455354204D32
S2140003B04F444520436F6D6D616E64732A0D0A00CD
S2140003C00D0A00415453454C454354454450524F42
S2140003D046494C4520283F292047657420696E64AD
S2140003E06578206F662063757272656E7420707211
S2140003F06F66696C650D0A00415453544F502028AF
S21400040065292053746F70207265666C6F770D0ACD
S2140004100041545354415254202865292053746196
S2140004207274207265666C6F770D0A002A52454614
S2140004304C4F57204D4F444520436F6D6D616E64A1
S214000440732A0D0A000D0A00415444454C45544594
S21400045050524F46494C4520283D2920526571751B
S214000460697265732070726F66696C6520696E6468
S21400047065782E20436C656172732070726F6669B2
S2140004806C650D0A0041544D415850524F46494C38
S2140004904553495A4520283F2920476574206D61F9
S2140004A078206E756D626572206F6620656C656D6E
S2140004B0656E747320283C74696D653E2C3C7465CB
S2140004C06D703E29207065722070726F66696C656B
S2140004D00D0A000954656D7020697320616C7761A0
S2140004E0797320696E204320616E64206973206DE5
S2140004F0756C7469706C69656420627920320D0AC7
S21400050000415450524F46494C4520283F2C3D2927
S2140005100D0A093F20526571756972657320707205
S2140005206F66696C6520696E6465782C20676574F3
S214000530732070726F66696C652073657474696E7B
S21400054067730D0A093D204E65772070726F6669E5
S2140005506C652E0D0A093C496E6465783E2C3C4E4F
S214000560616D653E2C3C74696D653E2C3C74656D12
S214000570703E2C3C74696D653E2C3C74656D703E17
S2140005802C2E2E2E0D0A00415450524F46494C45F3
S2140005904E414D455320283F292047657420616C05
S2140005A06C2070726F66696C65206E616D65730D88
S2140005B00A0041544D415850524F46494C4553202D
S2140005C0283F29204D6178206E756D626572206F18
S2140005D0662070726F66696C65730D0A0950726FDB
S2140005E066696C65203020697320616C7761797369
S2140005F02064656661756C7420616E642063616E4C
S2140006006E6F74206265206368616E6765640D0AAC
S2140006100041544D454E5553454C4543542028659E
S214000620292053656C6563742063757272656E74F9
S214000630206D656E75206974656D20686967686CE5
S2140006406967687465640D0A0041544D454E55440B
S2140006504F574E20286529204D6F76652073656CB0
S214000660656374696F6E20646F776E0D0A0041547F
S2140006704D454E55555020286529204D6F766520EE
S21400068073656C656374696F6E2075700D0A002A59
S2140006904D454E55204D4F444520436F6D6D616E60
S2140006A064732A0D0A000D0A0041544C4F4747490F
S2140006B04E474F4646202865292044697361626C80
S2140006C065206C6F6767696E670D0A0041544C4F72
S2140006D04747494E474F4E2028652920456E6162A0
S2140006E06C65206C6F6767696E670D0A09526574E2
S2140006F075726E73203C74696D653E2C3C74656D36
S214000700703E3C6E65776C696E653E20696E206350
S214000710757272656E742074656D70206D6F646599
S2140007200D0A00415442555A5A45524F4E54494DAF
S2140007304520283F2C3D290D0A093F205265747537
S214000740726E73206F6E2074696D6520696E206D01
S214000750696C6C697365636F6E64732E2030206DF0
S21400076065616E73206E65766572206F6E2E0D0A5B
S214000770093D20536574206F6E2074696D6520698D
S2140007806E206D696C6C697365636F6E64730D0AB9
S2140007900009213C72206C65643E2C213C67206C6D
S2140007A065643E2C213C62206C65643E2C0D0A0973
S2140007B03C6261636B6C696768743E2C3C746F7056
S2140007C020686561743E2C3C626F74746F6D20689F
S2140007D06561743E2C3C66616E3E2C3C62757A7A8E
S2140007E065723E0D0A004154414C4C5354415445E9
S2140007F020283F29204765742066756C6C206F762C
S214000800656E20737461746520696E666F20287447
S214000810656D7020696E2063757272656E742074E3
S214000820656D70206D6F6465290D0A093C50726F06
S21400083066696C6520233E2C3C4F76656E204D6FB6
S21400084064653E2C3C4F76656E2053746174653E3D
S2140008502C3C5461726765742054696D653E2C3C6F
S21400086041637475616C2054696D653E2C0D0A09F0
S2140008703C5461726765742054656D703E2C3C4133
S214000880637475616C2054656D703E2C0D0A0041D2
S214000890544F56454E54454D5020283F2920476515
S2140008A0742063757272656E74206F76656E207440
S2140008B0656D7020696E2063757272656E74207443
S2140008C0656D70206D6F64650D0A0041544F564586
S2140008D04E535441544520283F2920476574206FC5
S2140008E076656E20737461746520285265666C6F39
S2140008F0772C204D656E752C2054657374290D0A6F
S2140009000041544F56454E4D4F444520283F292020
S214000910476574206F76656E206D6F64652028537A
S214000920746F707065642C2052756E6E696E672CDD
S2140009302048656174696E67290D0A00415442417A
S214000940434B4C494748544F4E54494D4520283F49
S2140009502C3D290D0A093F204765742074696D6592
S214000960206261636B6C6967687420737461797365
S214000970206F6E2028696E207365636F6E6473291E
S2140009802030203D20696E66696E6974650D0A091F
S2140009903D20536574206261636B6C6967687420E0
S2140009A06F6E2074696D6520696E207365636F6E67
S2140009B064730D0A00415454454D504D4F44454311
S2140009C020286529205365742074656D70206D6F2E
S2140009D0646520746F2043656C636975730D0A0047
S2140009E0415454454D504D4F4445462028652920D6
S2140009F05365742074656D70206D6F646520746F28
S214000A002066616872656E686569740D0A004154F7
S214000A1054454D504D4F444520283F29205265747B
S214000A2075726E2074656D70206D6F646520284346
S214000A30206F722046290D0A0041544241434B4C18
S214000A40494748544F464620286529205475726EFB
S214000A50204261636B6C69676874204F66660D0A96
S214000A600041544241434B4C494748544F4E20287E
S214000A706529205475726E204261636B6C696768E5
S214000A8074204F6E20286E6F2074696D656F7574C4
S214000A90290D0A0041545245464C4F574D4F444588
S214000AA02028652920456E746572205265666C6F35
S214000AB077204D6F64650D0A004154544553544DDC
S214000AC04F44452028652920456E7465722054657C
S214000AD07374204D6F64650D0A0041544D454E55A4
S214000AE04D4F44452028652920456E746572204D7B
S214000AF0656E75204D6F64650D0A002A414C4C20CA
S214000B004D4F44455320436F6D6D616E64732A0DDF
S214000B100A000D0A000D0A0D0A2A2A415420434FE6
S214000B204D4D414E445320653A2065786563757493
S214000B30652C203F3A2071756572792C203D3A204D
S214000B407365742A2A0D0A0011241FBECFEFCDBF8D
S214000B50DFE3DEBF00E00CBF18BE19BE1ABE1BBE28
S214000B6014E2A0E0B0E2EEEBF0E700E00BBF02C05C
S214000B7007900D92AE3AB107D9F71BBE23E3AEEA53
S214000B80B4E201C01D92A736B207E1F70E947A15BB
S214000B900C945D3835CA3BB78BBFFB0186913BBFD3
S214000BA008953BB78BBFFB01879196913BBF089595
S214000BB042E07CC041E07AC08093C00188278093E1
S214000BC0C1018093C20147E061D0CB0108958093B4
S214000BD0C40148E05BC08091D00108953BB748E16E
S214000BE00D9417003BB74AE10D9417003BB740E25F
S214000BF00D9417003BB78BBFCB0142E20D94170054
S214000C003BB76BBFFA0119BEDC0140E04093CA0156
S214000C1050E8879197918D939D935A95D1F73BBF56
S214000C2008953BB78BBFCB0144E20D9417003BB74A
S214000C308BBFCB0145E20D9417003BB746E20D94FF
S214000C4017003BB78BBFCB014AE20D9417003BB7AA
S214000C508BBFCB014CE20D9417003BB78BBFCB018B
S214000C604DE20D94170048E311C049E30FC028ED8C
S214000C702093340021E02093CC0108952091CF01E9
S214000C8027FDFCCF22272093CA0108954093CA016E
S214000C9028ED31E0209334003093CB016091C401FD
S214000CA07091C5018091C60199270895FC01409373
S214000CB0CA0184910895CF92DF92EF92FF920F932C
S214000CC01F93CF93DF93CDB7DEB7DA95CDBFDEBFE8
S214000CD08D3009F060C0E091B124F0E0E95BF84D9A
S214000CE0108287E497E20E94EE348C01803178F01F
S214000CF084E191E29F938F938CE993E29F938F9385
S214000D000E944F350F900F900F900F903FC0BE017E
S214000D106F5F7F4F0E94EF1D898181508E3F90F557
S214000D20CE0101969F938F9311271F930F9385E310
S214000D3091E29F938F930E944F358D850F900F9071
S214000D400F900F900F900F90811138C01FC0F801C0
S214000D50319780818823D1F0F80190811F929F936C
S214000D601F928F93FF92EF920E944F350E5F1F4F98
S214000D700F900F900F900F900F900F900C151D0571
S214000D8031F704C080E491E20E9489351092B124C4
S214000D901092B42432C090ED980F9A3070F590916E
S214000DA0B124943050F5E091B12491E09E0F9093D9
S214000DB0B124F0E0E95BF84D80831FC09E851F924A
S214000DC09F931F928F9387E593E29F938F930E9442
S214000DD04F358E01005F1F4F6E01FEEFCF1ADF0A00
S214000DE00F900F900F900F900F900F900F2EF7E52B
S214000DF0EF2EF3E2FF2EF02DAACFD395CDBFDEBFA8
S214000E00DF91CF911F910F91FF90EF90DF90CF90E1
S214000E10089590ED980F9A3070F49091B124943024
S214000E2050F4E091B12491E09E0F9093B124F0E04D
S214000E30E95BF84D80838D30A9F4E091B124F0E0B1
S214000E40E95BF84D108287E497E20E94EE3499271A
S214000E508093192090931A200E94E7181092B124CC
S214000E601092B424089590ED980F9A3070F49091F3
S214000E70B124943050F4E091B12491E09E0F909309
S214000E80B124F0E0E95BF84D80838D30A1F4E09169
S214000E90B124F0E0E95BF84D108287E497E20E9407
S214000EA0EE3480931720909318200E94E718109233
S214000EB0B1241092B4240895CF93DF93CDB7DEB754
S214000EC0DA95CDBFDEBF8D3089F5E091B124F0E034
S214000ED0E95BF84D108287E497E20E94EE34803199
S214000EE078F084E191E29F938F938CE993E29F934D
S214000EF08F930E944F350F900F900F900F9011C058
S214000F00BE016F5F7F4F20E031E0FB01A901119227
S214000F1041505040E1F70E947A1E0E9439180E9404
S214000F20E8171092B1241092B42412C090ED980FD6
S214000F309A3070F49091B124943050F4E091B1243A
S214000F4091E09E0F9093B124F0E0E95BF84D80832A
S214000F50D395CDBFDEBFDF91CF9108958C3209F0D7
S214000F6079C0E091B124F0E0E95BF84D1082109270
S214000F70B1248091B32481112AC087E497E20E94AD
S214000F80EE348093AE241092B12481508F3088F0D6
S214000F9084E191E29F938F938CE993E29F938F93E2
S214000FA00E944F351092B4240F900F900F900F9020
S214000FB0089580E091E0E7E7F7E2DF019C011D92EB
S214000FC021503040E1F781E08093B324089580916A
S214000FD0B324813051F5809147278823F1F0809122
S214000FE047278F3F09F071C018C0FC01E95BF84D38
S214000FF04081442391F0FC01E95BF84D40814F3F6E
S21400100061F0FC01E95BF84D4081FC01E958F84DC0
S214001010408301968C30910541F71092AF241092D0
S214001020B02482E08093B324089587E497E20E9478
S214001030EE34E091AF24F091B024ED57F84D808364
S2140010408091AF249091B02401968093AF24909322
S214001050B02408958D3079F467E777E28091AE2466
S2140010600E947A1E0E9439180E94E8171092B12436
S2140010701092B42408959091B324992321F090916E
S214001080B324923099F490ED980F9A3028F5909109
S214001090B124943008F5E091B12491E09E0F90932E
S2140010A0B124F0E0E95BF84D808308959091B12477
S2140010B09B3090F4E091B12491E09E0F9093B12480
S2140010C0F0E0E95BF84D8083089580914727809390
S2140010D0772781E090E089CF08958091E1248230DF
S2140010E059F0813061F081110DC08091DA24882397
S2140010F061F08CE591E208958CE491E2089584E530
S21400110091E2089585E691E2089585E691E20895D4
S2140011108091DF24823029F0813031F089E791E236
S21400112008958DE691E2089582E791E20895E0E061
S214001130F6E080E4868380E8868380E2868388E023
S21400114080938606E0E2F6E081E0858382E0858390
S21400115084E0868308950E945519E9DF1092DF2403
S21400116081E0809316200C94E8170895E0DF0E9433
S214001170551982E08093DF2420E040E060E08EE7AF
S21400118091E20E94FB120C94D4120895D0DF1092C4
S214001190162081E08093DF2408959091DF2498172D
S2140011A0B1F1823081F488E891E29F938F938CE9C5
S2140011B093E29F938F930E944F350F900F900F905E
S2140011C00F9080E00895813081F481EA91E29F9348
S2140011D08F938CE993E29F938F930E944F350F90E5
S2140011E00F900F900F9080E00895811112C08CEB45
S2140011F091E29F938F938CE993E29F938F930E9443
S2140012004F350F900F900F900F9080E0089581E07B
S214001210089580E00895CF93DF93D82FC92F65ED0A
S21400122071E20E941B35892B11F495DFA2C16EED89
S21400123071E28D2F9C2F0E941B35892B11F496DFAF
S21400124098C167EE71E28D2F9C2F0E941B35892B6B
S21400125011F49CDF8EC162EF71E28D2F9C2F0E94ED
S2140012601B35892B21F488E08093250682C16EEF1A
S21400127071E28D2F9C2F0E941B35892B21F488E06C
S2140012808093260676C16BE072E28D2F9C2F0E941B
S2140012901B35892B31F481E08093E0240E94E71807
S2140012A068C165E172E28D2F9C2F0E941B35892B49
S2140012B029F41092E0240E94E7185BC16FE172E205
S2140012C08D2F9C2F0E941B35892B21F481E0809363
S2140012D0DB244FC169E272E28D2F9C2F0E941B35E2
S2140012E0892B19F41092DB2444C164E372E28D2F3B
S2140012F09C2F0E941B35892B39F480E04EDF882313
S21400130019F00E94F21735C16BE372E28D2F9C2F05
S2140013100E941B35892B39F480E03FDF882319F0C3
S2140013200E94151826C164E472E28D2F9C2F0E943D
S2140013301B35892B39F480E030DF882319F00E94B2
S2140013404E1B17C16FE472E28D2F9C2F0E941B3537
S214001350892B41F482E021DF882321F080E480930A
S214001360050607C169E572E28D2F9C2F0E941B358A
S214001370892B41F482E011DF882321F080E48093FA
S2140013800606F7C064E672E28D2F9C2F0E941B357E
S214001390892B41F482E001DF882321F080E88093E6
S2140013A00506E7C061E772E28D2F9C2F0E941B3571
S2140013B0892B41F482E0F1DE882321F080E88093D7
S2140013C00606D7C06FE772E28D2F9C2F0E941B3552
S2140013D0892B41F482E0E1DE882321F080E28093CD
S2140013E00506C7C065E872E28D2F9C2F0E941B354C
S2140013F0892B41F482E0D1DE882321F080E28093BD
S2140014000606B7C06CE872E28D2F9C2F0E941B3533
S214001410892B41F482E0C1DE882321F088E08093A6
S2140014208506A7C065E972E28D2F9C2F0E941B35AA
S214001430892B41F482E0B1DE882321F088E0809396
S214001440860697C06FE972E28D2F9C2F0E941B358F
S214001450892B41F482E0A1DE882321F081E080938D
S214001460260687C066EA72E28D2F9C2F0E941B35E7
S214001470892B41F482E091DE882321F081E080937D
S214001480250677C06EEA72E28D2F9C2F0E941B35D0
S214001490892B41F482E081DE882321F082E080936C
S2140014A0260667C065EB72E28D2F9C2F0E941B35C7
S2140014B0892B41F482E071DE882321F082E080935C
S2140014C0250657C06DEB72E28D2F9C2F0E941B35B0
S2140014D0892B41F482E061DE882321F084E080934A
S2140014E0260647C064EC72E28D2F9C2F0E941B35A7
S2140014F0892B41F482E051DE882321F084E080933A
S214001500250637C06CEC72E28D2F9C2F0E941B358F
S214001510892B39F481E041DE882319F00E9459199D
S21400152028C062ED72E28D2F9C2F0E941B35892BFE
S21400153039F481E032DE882319F00E94551919C06B
S214001540CF93DF9387ED92E29F938F938DEE92E297
S2140015509F938F930E944F35ED2FFC2F80E2DF0183
S2140015601D928A95E9F70F900F900F900F900F90AD
S2140015700F90DF91CF9108952F923F924F925F92F6
S2140015806F927F928F929F92AF92BF92CF92DF928E
S214001590EF92FF920F931F93CF93DF93CDB7DEB7F3
S2140015A0CF5CD109CDBFDEBF8C011092B42465EFAD
S2140015B072E20E941B35892B71F48091E024811120
S2140015C005C08EEF92E20E94893565C381E093E202
S2140015D00E94893560C364E073E2C8010E941B352F
S2140015E0892B89F480911A208F93809119208F93EC
S2140015F08AE593E29F938F930E944F350F900F904A
S2140016000F900F9048C364E173E2C8010E941B3537
S214001610892B71F462DD9F938F938CE993E29F93FD
S2140016208F930E944F350F900F900F900F9033C3FB
S2140016306EE173E2C8010E941B35892B61F50E949A
S2140016408B30BC01729562956F7067277F70672735
S2140016508091E024813091F480E090E00E94663230
S21400166026E636E646EE5FE30E94183320E030E0DA
S21400167040E052E40E9465310E943A327F936F93B5
S2140016808AE593E29F938F930E944F350F900F90B9
S2140016900F900F9000C367E273E2C8010E941B35EB
S2140016A0892B09F0AEC080918F2E9091902E0E94CB
S2140016B06B198C010E948B307C01F694E794F694AB
S2140016C0E794F694E794F694E7948091E0248130CA
S2140016D041F5B80180E090E00E94663226E636E6E4
S2140016E046EE5FE30E94183320E030E040E052E42C
S2140016F00E9465310E943A328B01B70180E090E08B
S2140017000E94663226E636E646EE5FE30E9418330F
S21400171020E030E040E052E40E9465310E943A3218
S2140017207B0160908806E0E0F6E070848084908418
S214001730E0E2F6E0A084B084C084D08430908F2E9F
S2140017402090902E5090912E4090922EC6DCC25340
S214001750DF4F8883CE5CD040C153DF4F9883CF5C89
S214001760D040D6DC63FA662460F81F926F9275FA52
S214001770772470F81F927F92282D880C330B232F26
S214001780221F2227221F1F922F9396FA992490F841
S2140017901F929F92A3FAAA24A0F81F92AF92B2FAC1
S2140017A0BB24B0F81F92BF92C1FACC24C0F81F9297
S2140017B0CF92D0FADD24D0F81F92DF92FF92EF92FC
S2140017C01F930F932F923F924F925F92C153DF4F1A
S2140017D02881CF5CD0402F93C253DF4FE881CE5C88
S2140017E0D040EF939F938F938091D9241F928F932D
S2140017F080E393E29F938F930E944F35CDBFDEBF69
S2140018004AC26FE573E2C8010E941B35892B71F44A
S2140018107FDC9F938F938CE993E29F938F930E9434
S2140018204F350F900F900F900F9035C268E673E219
S214001830C8010E941B35892B89F4809118208F934C
S214001840809117208F938AE593E29F938F930E944F
S2140018504F350F900F900F900F901DC265E773E203
S214001860C8010E941B35892B91F480E096DC882302
S21400187071F01F9280E18F938AE593E29F938F9396
S2140018800E944F350F900F900F900F9004C261E8A2
S21400189073E2C8010E941B35892B09F042C080E024
S2140018A07CDC8823F1F1CE0101960E943E1E8EE874
S2140018B093E20E948935FE0131964E0195EB890E22
S2140018C0911CCC24C394D12C7E0121ECE20EF11C99
S2140018D00F2EF9E9AF2EF3E2BF2EF02D1DC0819139
S2140018E08D93E017F107D9F7F7011486FF92EF9270
S2140018F0DF92CF92BF92AF920E944F35FFEFCF1A82
S214001900DF0AF8010F900F900F900F900F900F9036
S2140019108016910609F4BFC1D7018F01045F1F4FDF
S214001920DECF68EB73E2C8010E941B35892B81F479
S21400193080E033DC882361F01092B12485E0809348
S214001940B4248BE596E08093772890937828A3C1FB
S21400195061EA73E2C8010E941B35892B91F480E08E
S2140019601CDC882371F01F928AE78F938AE593E246
S2140019709F938F930E944F350F900F900F900F906C
S2140019808AC160EB73E2C8010E941B35892B99F46B
S21400199081E003DC882379F08091D1241F928F9315
S2140019A08AE593E29F938F930E944F350F900F9096
S2140019B00F900F9070C1F8018081811155C185E1AB
S2140019C09BE09F938F930E94623582E19BE09F93FA
S2140019D08F930E9462358BEF9AE09F938F930E94BD
S2140019E062358AED9AE09F938F930E94623589EB69
S2140019F09AE09F938F930E94623584E99AE09F93C2
S214001A008F930E94623581E69AE09F938F930E949F
S214001A10623589E39AE09F938F930E9462358EE049
S214001A209AE09F938F930E94623580EE99E09F9391
S214001A308F930E94623585EB99E09F938F930E9467
S214001A4062358CE399E09F938F930E94623581E024
S214001A5099E09F938F930E9462358BEC98E09F935A
S214001A608F930E9462358FE898E09F938F930E9431
S214001A70623586EE97E09F938F930E946235CDBFC6
S214001A80DEBF81E997E09F938F930E94623583E2E1
S214001A9097E09F938F930E9462358CEC96E09F931D
S214001AA08F930E94623589EA96E09F938F930E94F7
S214001AB0623586EA96E09F938F930E9462358FE8A0
S214001AC096E09F938F930E9462358EE696E09F93F2
S214001AD08F930E94623589E496E09F938F930E94CD
S214001AE0623581E196E09F938F930E94623582EB88
S214001AF095E09F938F930E94623587E895E09F93C9
S214001B008F930E94623581E095E09F938F930E94A9
S214001B10623583ED94E09F938F930E94623585E84B
S214001B2094E09F938F930E94623588E494E09F939D
S214001B308F930E94623585E494E09F938F930E9472
S214001B406235CDBFDEBF8CE294E09F938F930E94F8
S214001B50623581E194E09F938F930E94623588EF0F
S214001B6093E09F938F930E94623583EC93E09F935C
S214001B708F930E94623580EC93E09F938F930E9430
S214001B80623589EA93E09F938F930E94623589E8D5
S214001B9093E09F938F930E94623587E693E09F932E
S214001BA08F930E94623581E493E09F938F930E9407
S214001BB0623589E193E09F938F930E94623584E0BB
S214001BC093E09F938F930E9462358DEE92E09F93F1
S214001BD08F930E94623582ED92E09F938F930E94CE
S214001BE0623585EB92E09F938F930E9462358BE976
S214001BF092E09F938F930E9462358FE792E09F93C7
S214001C008F930E946235CDBFDEBF83E692E09F933E
S214001C108F930E94623585E492E09F938F930E9493
S214001C2062358AE292E09F938F930E9462358DE040
S214001C3092E09F938F930E9462358AE092E09F9392
S214001C408F930E94623580EC93E29F938F938BEC88
S214001C5093E29F938F9387ED93E29F938F930E94D7
S214001C604F35CDBFDEBF17C01F930F9387ED92E2AF
S214001C709F938F938DEE92E29F938F930E944F35A2
S214001C8080E2F80111928A95E9F70F900F900F9075
S214001C900F900F900F90C153DF4FCDBFDEBFDF9187
S214001CA0CF911F910F91FF90EF90DF90CF90BF9054
S214001CB0AF909F908F907F906F905F904F903F90E7
S214001CC02F900895CF93DF93D82FC92F1092B42466
S214001CD064E073E20E941B35892B61F41092B124F4
S214001CE085E08093B42489E097E0809377289093EA
S214001CF0782863C068E673E28D2F9C2F0E941B3500
S214001D00892B61F41092B12485E08093B42483E398
S214001D1097E080937728909378284FC066EF73E219
S214001D208D2F9C2F0E941B35892B81F480E035DA9D
S214001D30882361F01092B12485E08093B4248CE56A
S214001D4097E0809377289093782837C068EB73E203
S214001D508D2F9C2F0E941B35892BB1F480E01DDA55
S214001D60882391F01092AF241092B0241092B124E0
S214001D7085E08093B4241092B3248EEA97E0809393
S214001D8077289093782819C0CF93DF9387ED92E257
S214001D909F938F938DEE92E29F938F930E944F3581
S214001DA0ED2FFC2F80E2DF011D928A95E9F70F9058
S214001DB00F900F900F900F900F90DF91CF91089596
S214001DC09FE9980F9A3108F480520895CF93C82F50
S214001DD0F7DF9091B424923041F128F4992351F022
S214001DE0913061F067C0933009F454C0953009F41F
S214001DF05BC060C081E08093B4245CC0843591F4FD
S214001E0082E08093B42480E2E7E5F7E2DF011D92EA
S214001E108A95E9F780E1E7E4F7E2DF011D928A950B
S214001E20E9F748C01092B42445C08F3331F480934C
S214001E30792883E08093B4243DC08D3351F410920A
S214001E40B224809379281092B22487E597E23ADF8D
S214001E5031C091ED980F9C3278F49091B224903274
S214001E6058F4E091B22491E09E0F9093B224F0E0F3
S214001E70E95AF84D80831EC08D30E1F48091B2247B
S214001E808823C1F01092B22487E597E2C4D9109255
S214001E90B42410C08D3011F0803261F41092B22458
S214001EA087E597E269DB06C0E0917728F09178280D
S214001EB08C2F1995CF9108952F923F924F925F9253
S214001EC06F927F928F929F92AF92BF92CF92DF9245
S214001ED0EF92FF920F931F93CF93DF93CDB7DEB7AA
S214001EE02E97CDBFDEBFF80111E0211101C010E032
S214001EF01195403308F04FE2242F26952695269517
S214001F0034E5239F70011124EA86FB86643508F0C9
S214001F1063E5C62ED12C4770542E28E0241B2C8750
S214001F209C012F5F3F4FDC016C91662309F439C199
S214001F30CF012C833D837601B8E5EB0EF11CEA85D4
S214001F40FB85EE0EFF1EE80EF91E5F01AC0CBD1CF5
S214001F509C012A0D3B1D2E833F83360134E0630E21
S214001F60711C460143E0840E911C9601295A3F4F8E
S214001F702E0F3F1FDC01A20FB31FAA83BB8356019F
S214001F80B2E0AB0EB11C1601EFEF2E1A3E0A5982D4
S214001F90462F4E805F8001C06901842F90E09C012F
S214001FA020523109C901880F991F880F991FA9016E
S214001FB0480F591F4D875E87CA010E94433181270B
S214001FC08E838D859E8501960E9443318127888762
S214001FD08D859E8502960E944331812789878D854F
S214001FE09E8503960E944331082F01278D859E8586
S214001FF004960E944331812754E5C516D10450F457
S214002000D2019C912E81098001C0220F0A94EAF722
S214002010922B9C93B4E52B16310460F4F701E75538
S214002020F10990812885098001C0220F0A94EAF7F9
S214002030922B9083E4E5AE16B10460F4F701E65502
S214002040F10990812985098001C0220F0A94EAF7D8
S214002050922B9083F4E58F16910460F4F701E55512
S214002060F1099081202F098001C0220F0A94EAF717
S214002070922B908324E56216710460F4F701E45510
S214002080F1099081282F098001C0220F0A94EAF7EF
S214002090922B908396012B5F3F4F4981442309F48E
S2140020A05FC0AA85BB85A135B14008F059C0F4E5EC
S2140020B0CF16D10478F4F201EC5AFF4F9E81492FD7
S2140020C050E00C8402C0559547950A94E2F790813B
S2140020D0492B4083A4E52A16310478F4F201EB5A22
S2140020E0FF4FB8854B2F50E00C8402C0559547959E
S2140020F00A94E2F7C0804C294083E4E5AE16B104AA
S21400210078F4F201EA5AFF4F9985492F50E00C8483
S21400211002C0559547950A94E2F7D0804D29408332
S214002120A4E58A16910468F4402F50E00C8402C09F
S214002130559547950A94E2F7EA81FB810081402B8A
S2140021404083F4E56F16710458F490E00C8402C0E6
S214002150959587950A94E2F7D7019C91892B8C93E5
S21400216024353105F0F4EC81FD814191EC83FD834B
S214002170F5E0EF0EF11C55E0450E511C85E0680EAB
S214002180711C95E0890E911CAA81BB811596AA83C5
S214002190BB83B5E0AB0EB11CE5E02E0E311C411141
S2140021A0FBCE2E96CDBFDEBFDF91CF911F910F9154
S2140021B0FF90EF90DF90CF90BF90AF909F908F9062
S2140021C07F906F905F904F903F902F900895603370
S2140021D008F06FE2962F96959695969554E5959FFE
S2140021E0F0011124982F843508F093E5DF01A90F3C
S2140021F0B11D442379F0F901EA0FFB1F677081E0F7
S21400220090E002C0880F991F6A95E2F790818927AF
S21400221080830895F901EA0FFB1F677081E090E064
S21400222002C0880F991F6A95E2F79081892B8083F8
S21400223008952F923F924F925F926F927F928F9265
S2140022409F92AF92BF92CF92DF92EF92FF920F9340
S2140022501F93CF93DF93CDB7DEB76997CDBFDEBFB1
S214002260D82E162F922E1701A42EB12C282F30E030
S214002270298B3A8BB501621B730B072E000C880B5B
S214002280990B0E94683269837A838B839C83892D9D
S21400229090E08F8B988FA12FB0E0AD8BBE8BBC01EA
S2140022A06A1B7B0B072E000C880B990B0E9468326A
S2140022B06D837E838F8398876D2D70E080E090E03D
S2140022C00E9466326B017C01B501BB0C880B990B32
S2140022D00E94683269877A878B879C879B01AC014E
S2140022E0C701B6010E94C93188230CF055C0ED899C
S2140022F0FE892F01FF0F6608770889899A89092EBB
S214002300000CAA0BBB0B8D879E87AF87B88B998E68
S214002310C301B2010E9468324B015C016D857E8567
S2140023208F8598890E9468329B01AC01C701B6016F
S2140023300E94643129813A814B815C810E94CD31B3
S2140023402D813E814F8158850E9418339B01AC0138
S214002350C501B4010E9465310E943A32B62EC7010B
S214002360B6010E943A32862F9101402F6B2D2FDF47
S21400237020E030E040E85FE3C701B6010E94653127
S2140023806B017C0129853A854B855C850E94C931A5
S21400239088230CF4BDCF998C191508F072C0612FF4
S2140023A070E080E090E00E9466326B017C01AF89AD
S2140023B0B88DBD01BB0F880B990B0E9468326987E8
S2140023C07A878B879C879B01AC01C701B6010E9468
S2140023D0C93188230CF055C089899A89092E000CCA
S2140023E0AA0BBB0B8D879E87AF87B88BAD89BE893E
S2140023F02D01BB0F660877089F8AC701B6010E94A9
S2140024003A32698F6D857E858F8598890E946832FD
S2140024104B015C01C301B2010E9468329B01AC0112
S214002420C701B6010E9464312D813E814F815885D7
S2140024300E94CD3129813A814B815C810E941833FC
S2140024409B01AC01C501B4010E9465310E943A327D
S214002450862F9101402F698DBADE20E030E040E8FB
S2140024605FE3C701B6010E9465316B017C012985D7
S2140024703A854B855C850E94C93188230CF4BDCF14
S2140024809F88911608F061C0692D70E080E090E0AA
S2140024900E9466326B017C01ED89FE89BF01FF0F49
S2140024A0880B990B0E9468324B015C019B01AC01C2
S2140024B0C701B6010E94C93188230CF046C089893D
S2140024C09A89092E000CAA0BBB0B898B9A8BAB8BB7
S2140024D0BC8BC701B6010E943A32162F69897A89E9
S2140024E08B899C890E9468322B013C01A5019401CE
S2140024F0C701B6010E9464312D813E814F81588507
S2140025000E94CD3129813A814B815C810E9418332B
S2140025109B01AC01C301B2010E9465310E943A32B0
S214002520862F9101402F612F52DE20E030E040E8F8
S2140025305FE3C701B6010E9465316B017C01A5010E
S21400254094010E94C931882324F26996CDBFDEBF6C
S214002550DF91CF911F910F91FF90EF90DF90CF907A
S214002560BF90AF909F908F907F906F905F904F90AE
S2140025703F902F90089520E030E0FC01E20FF31F1B
S214002580DA01A20FB31F9C0128503E4F662321F0AC
S214002590908190959C9302C080818C933196119681
S2140025A0E217F30799F70895809106209091072087
S2140025B028E28A37920739F422E73AE22093062087
S2140025C03093072006C02AE738E22093062030938F
S2140025D00720E0910620F091072028EF31E0DF0188
S2140025E0A9011D9241505040E1F7E0914527F09136
S2140025F04627199508950F931F9300910620109172
S21400260007205ADC1F910F910895209106203091E3
S2140026100720DDCD08954091062050910720ABCFCE
S214002620089594E0909366068093A008E0EAF8E0A8
S214002630818185FFFDCF089524E020936506E0E0C4
S214002640F1E0808F918F128E80898069808B08954B
S214002650E0EAF8E016821782A0E4B6E011968C91C4
S21400266011978A6011968C9380EC858398E094830A
S21400267098EC968387830895E0E6F6E080E1808B09
S21400268087E0818381E0858382E086830895E0E0A9
S214002690F1E0108280E48083808186FDFDCFE0E05B
S2140026A0F1E080E1828B8CE4838B88EF91E0848B71
S2140026B0958B80EA848F88E0858F168E84E0808BE9
S2140026C0118A85E880830895E0E6F6E081E0868357
S2140026D09AE69A95F1F700C085838AE68A95F1F71F
S2140026E000C00895F1DF81E29CDF88EB9ADF84E08A
S2140026F098DF84E196DF80E294DF8CE092DF80E86A
S21400270090DF80E48EDF8AE68A95F1F700C00895B0
S214002710B3DF9EDFBCDFE6CF089590E00C94BC24C8
S214002720089581E08093B52408951092B524089505
S2140027300E9433248093B624089508951F920F9222
S2140027400FB60F92112408B60F9218BE09B60F9254
S21400275019BE0BB60F921BBE2F933F934F935F93FA
S2140027606F937F938F939F93AF93BF93EF93FF9354
S2140027708091D024882349F08091CC249091CD2458
S21400278001968093CC249093CD248091CF248823E7
S21400279049F08091CA249091CB2401968093CA2454
S2140027A09093CB248091CE248823B1F08091C924C5
S2140027B08F5F8093C9248091DF24813069F48091F3
S2140027C0E124882349F08091BD249091BE2401968F
S2140027D08093BD249093BE248091DE248823B1F09C
S2140027E08091BB249091BC2401968093BB24909347
S2140027F0BC248091BB249091BC24883E934050F02A
S2140028001092BB241092BC2498D704C01092BB240C
S2140028101092BC248091DD248823B1F08091B924E5
S2140028209091BA2401968093B9249093BA2420916B
S214002830B9243091BA248091172090911820281737
S214002840390730F0ABD704C01092B9241092BA24DE
S2140028508091080680FF06C08091C8248F5F809311
S214002860C82404C01092C8241092C324809108067D
S21400287081FF06C08091C7248F5F8093C72404C061
S2140028801092C7241092C2248091080682FF06C0C8
S2140028908091C6248F5F8093C62404C01092C624FD
S2140028A01092C1248091080683FF06C08091C5243B
S2140028B08F5F8093C52404C01092C5241092C02454
S2140028C08091080684FF06C08091C4248F5F8093A1
S2140028D0C42404C01092C4241092BF248091DC2427
S2140028E08823C1F08091B7249091B82401968093F4
S2140028F0B7249093B8248091B7249091B8248A3F47
S214002900910560F084E0809327061092B724109219
S214002910B82404C01092B7241092B824FF91EF9107
S214002920BF91AF919F918F917F916F915F914F91E2
S2140029303F912F910F900BBE0F9009BE0F9008BECF
S2140029400F900FBE0F901F90189561E083E00E94D5
S214002950E830E0E0F8E08FEF91E086A397A381E00F
S21400296086831782148685E0808311821282138202
S21400297014820895CF93DF93E0E2F6E080818F60C3
S2140029808083A0E0B6E08C91806E8C93C0E8D6E0A1
S21400299088818860888380E1809310068093110682
S2140029A080931206809313068093140681E0858335
S2140029B082E0858384E0868388E0868390E41696AA
S2140029C09C93169790E816969C9316978E8380E2B3
S2140029D016968C93DF91CF9108955F926F927F92B7
S2140029E08F929F92AF92BF92CF92DF92EF92FF921A
S2140029F00F931F93CF93DF93CDB7DEB7D250CDBFE3
S214002A00DEBFA12CBB24B394CE010196DC01F501F8
S214002A101D923197E9F724E529830F2EF5E4FF2E62
S214002A20F02DFA8233E53B832C830F2EF0E55F2EE4
S214002A30F02D5D820F2EF2E56F2EF02D6E820F2E9A
S214002A40FFE47F2EF02D7F820F2EF6E48F2EF02DE2
S214002A5088860F2EF9E49F2EF02D99860F2EFCE423
S214002A60CF2EF02DCA86FB8602E30D8712E81E875E
S214002A700F2EFAE0DF2EF02DDF86188BEE24E3947F
S214002A80E98A0F94040080E00E948A21FE01EF5F2D
S214002A90FE4FDF0195011D9221503040E1F783E2A1
S214002AA0808301838FE58283838354826582768266
S214002AB087829086C186F28604871587D686178712
S214002AC0E08ACF010F94040081E00E948A21DE5F35
S214002AD0CDBFDEBFDF91CF911F910F91FF90EF909A
S214002AE0DF90CF90BF90AF909F908F907F906F9029
S214002AF05F900895CF93DF93CDB7DEB7C85FD14020
S214002B00CDBFDEBF37DFF8940E94A93001DE1DDF9F
S214002B100E94A52588E090E2809363339093643307
S214002B208CE193E1809345279093462787E0809336
S214002B30A200ECECF1E08081886080830E94A730E0
S214002B4078944BDF1FD394D5CE01019602D761E06F
S214002B50CE01019660DD28DD81E08093D0241092BE
S214002B60E1241092DF2404E014E2EE24E3940F2E16
S214002B70F6E0FF2EF02D8091B624882329F0809170
S214002B80B62424D91092B6248091CC249091CD24DA
S214002B908C3D954038F1E092CF241092D02420E06E
S214002BA04EE062E08BEC93E226DD20E048E162E056
S214002BB080EC93E220DD80EC93E29F938F938BEC86
S214002BC093E29F938F931F930F930E944F35ECDCF5
S214002BD01092CC241092CD240F900F900F900F904F
S214002BE00F900F908091CA249091CB248C3D9540F5
S214002BF070F08091CF24882351F01092CF24E09279
S214002C00CE2437D2E5D180E494E20E9489358091C3
S214002C10C924843660F01092C9248091DF24813064
S214002C2009F4CCD58091DF24823009F4B2D68091A5
S214002C30BD249091BE24893E934088F08091E12483
S214002C40882369F01092BD241092BE2480918F2EA6
S214002C509091902E019680938F2E9093902E809137
S214002C60C824833370F08091C324811103C00AD531
S214002C70F092C3241092C8248091C324815080937C
S214002C80C3248091C724833370F08091C2248111BD
S214002C9003C0FED4F092C2241092C7248091C224AE
S214002CA081508093C2248091C624833370F0809133
S214002CB0C124811103C0F2D4F092C1241092C6241C
S214002CC08091C12481508093C1248091C524833390
S214002CD070F08091C024811103C00ED5F092C024FC
S214002CE01092C5248091C02481508093C024809186
S214002CF0C424833308F43FCF8091BF24811104C0DD
S214002D0007D588E18093BF241092C4248091BF2405
S214002D1081508093BF242FCF40E061E088E275DCCD
S214002D2040E062E087E271DC40E062E088E26DDC71
S214002D3040E062E089E269DC40E063E086E265DC70
S214002D4040E063E087E261DC40E063E088E25DDC6F
S214002D5040E063E089E259DC40E063E08AE255DC6B
S214002D6040E064E085E251DC40E064E086E24DDC71
S214002D7040E064E087E249DC40E064E088E245DC6D
S214002D8040E064E089E241DC40E064E08AE23DDC69
S214002D9040E064E08BE239DC40E065E084E235DC6C
S214002DA040E065E085E231DC40E065E086E22DDC6F
S214002DB040E065E087E229DC40E065E088E225DC6B
S214002DC040E065E089E221DC40E065E08AE21DDC67
S214002DD040E065E08BE219DC40E065E08CE215CC73
S214002DE0089540E06AE284E210DC40E06AE285E2B0
S214002DF00CDC40E06AE286E208DC40E06AE287E259
S214002E0004DC40E06AE288E200DC40E06AE289E254
S214002E10FCDB40E06AE28AE2F8DB40E06AE28BE252
S214002E20F4DB40E06AE28CE2F0DB40E06BE285E255
S214002E30ECDB40E06BE286E2E8DB40E06BE287E258
S214002E40E4DB40E06BE288E2E0DB40E06BE289E254
S214002E50DCDB40E06BE28AE2D8DB40E06BE28BE250
S214002E60D4DB40E06CE286E2D0DB40E06CE287E256
S214002E70CCDB40E06CE288E2C8DB40E06CE289E252
S214002E80C4DB40E06CE28AE2C0DB40E06DE287E251
S214002E90BCDB40E06DE288E2B8DB40E06DE289E250
S214002EA0B4DB40E06EE288E2B0CB08950F931F9348
S214002EB0CF93DF9380916A2C81112EDF80916A2C4C
S214002EC08C3020F58EDF22C0AE0120916A2C309126
S214002ED06A2C8091D12490E0BE01620F711D21E022
S214002EE08617970709F020E0430F511D049FC00185
S214002EF0059F900D1124412F60E08559934D7BDB93
S214002F002196185F183201F74FDB05C018E0C0E0C5
S214002F10D0E001E1D9CFDF91CF911F910F910895B5
S214002F20CF93DF93CDB7DEB72D97CDBFDEBF8091B1
S214002F309B2E8983882379F0ACE9BEE2FE013296A7
S214002F4081E090E02D912193222339F001968C3078
S214002F509105C1F702C080E090E01D8696958795A2
S214002F609C01220F331F220F331F820F931F6AE22A
S214002F7070E0681B790B21E040E0CE0101963BDB58
S214002F8020E048E064E086EE90E235DB20E040E1B9
S214002F9069E087EF90E22FDB21E08091D124811158
S214002FA020E048E16AE086E091E225DB21E08091BE
S214002FB0D124813009F020E040E26AE08DE091E221
S214002FC01ADBF2DA2D96CDBFDEBFDF91CF910895E2
S214002FD010926A2C80911620813011F467CF0895E4
S214002FE09FCF089580911620813099F48091D12446
S214002FF08823D1F081508093D12490916A2C992314
S21400300039F08D3028F480916A2C815080936A2C98
S2140030104DDF80911620823039F48091D1248823A8
S21400302019F01092D1247CCF08958091162081301B
S21400303099F48091D1248F30D9F08F5F8093D1247A
S21400304090916A2C9C3038F4833028F080916A2C5A
S2140030508F5F80936A2C2ADF80911620823041F49D
S2140030608091D124813021F081E08093D12458CF03
S21400307008957F928F929F92AF92BF92CF92DF92E7
S214003080EF92FF920F931F93CF93DF93CDB7DEB7E8
S214003090C05CD109CDBFDEBF1092D12410926A2C3D
S2140030A0CE010196EBD50CE71CE2CE0101966C0131
S2140030B0EE24E394F12C6894772475F80F2EFEE244
S2140030C08F2EF0E29F2EA92CB12CF02DF8017082E5
S2140030D0F9E0FE1540F04AE0B8016F5F7F4FC70188
S2140030E00E94243505C04AE0B801C7010E94243575
S2140030F0F80182829382A482B58234969801205F7A
S2140031003F4FD6018D918193E217F307D9F70F5EF3
S2140031101F4FFCE0CF0ED11C8FEFE81AF80A90E1A3
S214003120E916F10499F6EBE6FCE280E2808390E390
S21400313091839EE29283838384E4848385E68583F9
S21400314086E6868381E6878385E780878CE68187A7
S21400315084E7828713861486158616861786108A55
S214003160C054DF4FCDBFDEBFDF91CF911F910F91CF
S214003170FF90EF90DF90CF90BF90AF909F908F9092
S2140031807F900895CF93DF93CDB7DEB7DA95CDBFA6
S214003190DEBF61E1CE0101960E949B21898180936A
S2140031A0E0248A8190E08093192090931A208C81E5
S2140031B090E0982F88272B81822B8093172090935E
S2140031C01820D395CDBFDEBFDF91CF910895CF9362
S2140031D0DF93CDB7DEB7DA95CDBFDEBF8091E024B2
S2140031E08983809119208A839091172080911820D6
S2140031F09B838C83CE0101960F94040081E10E948C
S2140032008A21D395CDBFDEBFDF91CF9108958091FF
S214003210E12481111FC01092DC2481E080932506F2
S214003220E0E0F6E080E2868380E4868380E88683BA
S2140032308091DA24882339F0E0E2F6E082E08683A3
S21400324084E085830895E0E2F6E084E0868382E009
S2140032508583089592E09093250690E29093050664
S21400326091E09093DC24823091F481E080932606EE
S2140032708091D324882319F080E4809305068091FA
S214003280D224882389F080E880930506089510925A
S214003290D3241092D22481E080932506E0E0F6E065
S2140032A080E4868380E8868308951092E124AFCF79
S2140032B0089510928F2E1092902E1092D424109271
S2140032C0DA241092162081E08093DF248093E12494
S2140032D0EFD79DCF0895CF92DF92EF92FF920F9394
S2140032E01F93CF93DF93BC018091D7249091D8246D
S2140032F06817790729F48091D5249091D6246DC05B
S2140033006093D7247093D8248091992E90919A2E0A
S214003310009709F462C0E091952EF091962E4081B8
S21400332051816417750708F04CC00AC08E01000F63
S214003330111F219131916217730708F046C006C02D
S21400334000E010E0C0E0D0E040E050E0641B750B09
S21400335080E090E00E946632CC0FDD1FCC0FDD1FB0
S21400336020919D2F30919E2FC20FD31F2881398127
S2140033704A815B810E9418336B017C0180919B2FF0
S21400338090919C2FFC01E00FF11F80819181BC0180
S21400339080E090E00E9466329B01AC01C701B60156
S2140033A00E9465319B01AC010E9465310E943A3251
S2140033B06093D5247093D6248091D5249091D624FA
S2140033C00CC03296C0E0D0E001C0A9012196C81713
S2140033D0D90709F0ABCF80E090E0DF91CF911F9145
S2140033E00F91FF90EF90DF90CF9008958091A72ED9
S2140033F0811118C012C0DF0111979C91992379F0B2
S214003400208130E0220F331F4217530708F4A9012A
S2140034103296E617F70779F702C040E050E0CA0197
S214003420499708954091A82E50E0440F551FEAEAA8
S214003430FEE26CE97FE2DFCF2091A72E21110EC0BD
S2140034400AC09081992381F0290F311D3296E41726
S214003450F507B9F709C020E030E006C030E0E9EA39
S214003460FEE24BE95FE2EDCFC90108953F924F922D
S2140034705F926F927F928F929F92AF92BF92CF92FF
S214003480DF92EF92FF920F931F93CF93DF931092EA
S214003490992E10929A2E8091A72E882379F0E9EA29
S2140034A0FEE280E090E001962081211105C0809325
S2140034B0992E90939A2E02C03296F5CF80919D2F2A
S2140034C090919E2F0E9456348091952E9091962E24
S2140034D00E94563480919B2F90919C2F0E945634C8
S2140034E0C091992ED0919A2EBE0184E090E00E9461
S2140034F0A73380939D2F90939E2FBE0182E090E08D
S2140035000E94A7338C018093952E9093962EBE0131
S21400351082E090E00E94A73380939B2F90939C2F8D
S214003520F80110821182FC01108211828091992E7E
S21400353090919A2E892B09F466C00F2EF8EAEF2E8A
S214003540FEE2FF2EF02D00E010E0A12CB12CC4E12D
S214003550D0E0C12CD12CF70131973080C30CD11CA0
S214003560C801880F991F80909D2F90909E2F880EDF
S214003570991EF701608170E080E090E00E9466325C
S2140035802B013C01BE0180E090E00E9466329B0168
S214003590AC01C301B2010E9464312B013C01632DD2
S2140035A070E080E090E00E9466329B01AC01C301AF
S2140035B0B2010E94CD31F4016083718382839383CC
S2140035C0E091952EF091962EE00FF11FC082D182E9
S2140035D0E0919B2FF0919C2FE00FF11FC083D183C9
S2140035E0F701C081D0E0FFEFAF1ABF0A0E5F1F4F92
S2140035F082E0E80EF11C8091992E90919A2EA816E2
S214003600B90608F4A8CFDF91CF911F910F91FF90D4
S214003610EF90DF90CF90BF90AF909F908F907F906D
S2140036206F905F904F903F900895803108F08FE044
S2140036308093D9246BE97EE2D2D21092D7241092DE
S214003640D8241092D5241092D6241092D424109206
S2140036508F2E1092902EF0DE8093912E9093922EC5
S214003660C5DE8093972E9093982E22D6FFCE08958F
S2140036701092DF2481E0809316201092D12480E0FF
S214003680D4CF08958091DF24823009F0ABCC089522
S2140036908091DF24823009F0C8CC08958091DF2421
S2140036A08130F9F480911620811107C082E0809362
S2140036B016201092D1248CCC08958230E1F48091AB
S2140036C0D12481110BC0F1DD81E080931620109289
S2140036D0DF241092D1249BDD7BCC08951092162017
S2140036E00895811108C0109216208091D1249DDF84
S2140036F081E08093DF2408958091DF24813039F4BF
S2140037008091E124811102C0D4CD0895CECD0895D4
S2140037108091DE24882331F01092DE2488E08093A6
S2140037202606089581E08093DE241092932E109250
S214003730942E88E080932506089580911920909114
S2140037401A202091932E3091942E2817390758F07E
S214003750892B49F01092DE241092932E1092942E0C
S21400376088E0809326068091DE24882349F08091A5
S214003770932E9091942E01968093932E9093942E50
S21400378008958091172090911820892B31F081E0C0
S2140037908093DD2488E08093850608951092DD24CA
S2140037A088E08093860608958091DA24811105C00A
S2140037B081E08093DA242BDDE4CF0895CF93DF9366
S2140037C0C091D42481E08C0F8093D4240E948B3047
S2140037D0EC2FF0E0EE0FFF1FE558F14D9295829525
S2140037E08F7089279F708927808391838091D42446
S2140037F08A3011F41092D424EBE7FEE24FE85EE242
S21400380020E030E081919191280F391FE417F507E9
S214003810C9F7ADECBCEC0E949833EC01D695C79581
S214003820D695C795D695C79580918F2E9091902E58
S2140038302091912E3091922E8217930788F0232B99
S21400384079F033DDB1DF40918F2E5091902E9E019E
S21400385060E070E08091912E9091922EE6D376C033
S2140038603ADD9C0121503109C217D30740F420915C
S214003870E124222309F44FC021E02093D3249C01A5
S2140038802E5F3F4F2C173D0708F04CC04091E124B7
S214003890442381F01092D324C817D90758F44091D6
S2140038A0E124442309F44DC041E04093D2242C1770
S2140038B03D0730F42091E1242223C9F11092D2244E
S2140038C02091D324211104C02091D224222339F040
S2140038D02091E124222319F022E02093E124209174
S2140038E0D32421110BC02091D224211107C020918E
S2140038F0E124222319F021E02093E12440918F2E29
S2140039005091902E9E01BC018091912E9091922E06
S2140039108CD37DDC1BC09C012E5F3F4FC817D90798
S21400392078F20AC0C817D90708F4B9CFC9CF2091D2
S214003930D3242111D4CFC8CF2C173D0708F0C0CF11
S214003940F6CF2091D3242111CACFBECFDF91CF91DD
S2140039500895EF92FF920F931F93CF93DF937C010E
S21400396028E0E21A2EEFF20AEC0100E013E0081B52
S214003970190BC8018C0F9D1F0E9443318993CE15E9
S214003980DF05B9F7DF91CF911F910F91FF90EF9070
S21400399008951F93CF93DF9300D000D0CDB7DEB746
S2140039A00E948B30929582958F7089279F70892709
S2140039B023E62E832091E0242130B1F4BC0180E080
S2140039C090E00E94663226E636E646EE5FE30E9408
S2140039D0183320E030E040E052E40E9465310E9457
S2140039E03A32CB0126E62E838436910510F41FE08A
S2140039F001C014E14AE0BE016F5F7F4F0E9424358C
S214003A0021E040E060E08EE791E20E94FB1264E570
S214003A10611B20E040E0CE0101960E94FB1220E0F0
S214003A2040E06FE4CE0106960E94FB1220E048E0DC
S214003A3060E087E494E20E94FB1220E040E160E050
S214003A408DE494E20E94FB1220E048E160E083E50A
S214003A5094E20E94FB1220E040E260E089E594E2F6
S214003A600E94FB128091280680FD08C021E048E0F5
S214003A7069E181EC92E20E94FB1207C020E048E078
S214003A8069E188EC92E20E94FB128091280681FD93
S214003A9008C021E040E169E181EC92E20E94FB125D
S214003AA007C020E040E169E188EC92E20E94FB1248
S214003AB08091280682FD08C021E048E169E181EC9A
S214003AC092E20E94FB1207C020E048E169E188EC20
S214003AD092E20E94FB128091280683FF08C021E034
S214003AE040E269E181EC92E20E94FB1207C020E00E
S214003AF040E269E188EC92E20E94FB1220E048E096
S214003B006DE28FE594E20E94FB1220E040E16DE258
S214003B1084E694E20E94FB1220E048E16DE289E62A
S214003B2094E20E94FB1220E040E26DE28EE694E210
S214003B300E94FB128091080686FF08C021E048E03C
S214003B4066E481EC92E20E94FB1207C020E048E0A7
S214003B5066E488EC92E20E94FB12809108068823B5
S214003B6044F421E040E166E481EC92E20E94FB121C
S214003B7007C020E040E166E488EC92E20E94FB1277
S214003B808091080685FF08C021E048E166E481ECE4
S214003B9092E20E94FB1207C020E048E166E488EC4F
S214003BA092E20E94FB128091880683FF08C021E003
S214003BB040E266E481EC92E20E94FB1207C020E03D
S214003BC040E266E488EC92E20E94FB120E94D41265
S214003BD02696CDBFDEBFDF91CF911F9108950F933C
S214003BE01F93CF93DF93CDB7DEB7DA95CDBFDEBF99
S214003BF020E031E0FB01A901119241505040E1F76D
S214003C00882361F10CC020FD02C0992379F12F5F53
S214003C103F4F9D9191932C303105A8F7F8CF8B013B
S214003C206FEF680FCE01019686D3FE013196D8015C
S214003C3080E090E021912D938C30910548F080FD36
S214003C4007C0211105C0F801E80FF91F11820EC048
S214003C500196811551E0950769F708C0FB0184E4D9
S214003C608193A4E7B4E220E030E0D1CFD395CDBF76
S214003C70DEBFDF91CF911F910F910895BF92CF9233
S214003C80DF92EF92FF920F931F93CF93DF93CDB700
S214003C90DEB7DA95CDBFDEBF6C01E12CF12CB12C7E
S214003CA08E01035F1F4F6B2DCE01019644D3FE019C
S214003CB03196D601AE0DBF1D91919F3F11F41C9217
S214003CC001C09C931196E017F107B1F7B3948CE00E
S214003CD0E80EF11C8FE0B812E6CFD395CDBFDEBF5D
S214003CE0DF91CF911F910F91FF90EF90DF90CF90D3
S214003CF0BF9008951F93CF93DF93CDB7DEB7DA95C5
S214003D00CDBFDEBF1FEF180F1F30B8F4DE011196CF
S214003D1020E031E0FD01C90111920197E9F7FB01AE
S214003D209B01339591919D93E217F307D9F7CE0146
S214003D3001960F940400812FEDD2D395CDBFDEBF40
S214003D40DF91CF911F9108952F923F924F925F92ED
S214003D506F927F928F929F92AF92BF92CF92DF9296
S214003D60EF92FF920F931F93CF93DF93CDB7DEB7FB
S214003D706097CDBFDEBF88EF91E0E7EAF0E3DF01B2
S214003D809C011D9221503040E1F71091A72E11237F
S214003D9009F4C9C00F2EF8EA2F2EFEE23F2EF02DB2
S214003DA00F2EF9EACF2EFEE2DF2EF02D1D821E82A8
S214003DB01F82188619821A821B821C8256010BC02B
S214003DC0D5011C91B2E02B0E311CE2E0AE0EB11C08
S214003DD0112309F4A8C08091A3309091A430A0913B
S214003DE0A530B091A63089879A87AB87BC8780912B
S214003DF09F309091A030A091A130B091A2308D87D5
S214003E009E87AF87B88B4090A3305090A4306090C8
S214003E10A5307090A630C0909F30D090A030E09033
S214003E20A130F090A230D1016C9170E06A50710917
S214003E30660F771F072E000C880B990B0E946832BE
S214003E4029853A854B855C850E9418330E94353259
S214003E500F2EFFE28F2EF02D861A612F70E080E085
S214003E6090E00E94683229813A814B815C810E94F1
S214003E7065312D853E854F8558890E9418330E94EE
S214003E803532162FA30192016D817E818F81988530
S214003E900E9418330E9435320F2EFFE29F2EF02D1F
S214003EA0961AA701960169817A818B819C810E946E
S214003EB018330E943532862F0F2EF7EAEF2EF0E3E6
S214003EC0FF2EF02D00E0282D412F692D0E9419119C
S214003ED0F1013197608170E080E090E00E946832E6
S214003EE09B01AC0169817A818B819C810E9465313E
S214003EF069837A838B839C83F101608170E06A50CA
S214003F007109660F771F072E000C880B990B0E940D
S214003F1068326D837E838F839887FAE92F16FFE2D7
S214003F203F0609F04DCF6096CDBFDEBFDF91CF9143
S214003F301F910F91FF90EF90DF90CF90BF90AF90C2
S214003F409F908F907F906F905F904F903F902F90B4
S214003F500895CF92DF92EF92FF920F931F93CF9325
S214003F60DF93CDB7DEB72E97CDBFDEBF8C01D62E42
S214003F70C42E9C01A9E8B8E80E9498337C01F69408
S214003F80E794F694E794F694E794F694E794F69418
S214003F90E7942CE32E9DC0012F9D900D1124081B45
S214003FA0190B102F86E0ECE8F4E2DE01199601907A
S214003FB00D928A95E1F74AE0BE016F5F7F4F8E2D26
S214003FC090E00E9424354AE0BE016B5F7F4F802F51
S214003FD090E00E94243589E08E1528F080E38987DA
S214003FE089818A8704C0898189878A818A871A306D
S214003FF028F480E38C878D818D8704C08D818C8723
S2140040008E818D8720E04C2D6D2DCE0109960E9465
S214004010FB122E96CDBFDEBFDF91CF911F910F9181
S214004020FF90EF90DF90CF9008952F923F924F929F
S2140040305F926F927F928F929F92AF92BF92CF9233
S214004040DF92EF92FF920F931F93CF93DF93CDB73C
S214004050DEB76097CDBFDEBF6C011B017A01890118
S2140040602431310510F404E110E0CE14DF0430F002
S214004070C6018E199F098D879E8702C01D861E86E3
S21400408083E680931B208091E024813069F5B1019E
S21400409080E090E00E94663226E636E646EE5FE373
S2140040A00E94183320E030E040E052E40E94653180
S2140040B00E943A321B01B80180E090E00E9466320E
S2140040C026E636E646EE5FE30E94183320E030E050
S2140040D040E052E40E9465310E943A326B877C874A
S2140040E086E680931B2002C00B871C8794E6291661
S2140040F0310418F48FE08F8702C094E19F878B8588
S2140041009C858436910518F49FE0988B02C084E164
S214004110888B4AE0BE016F5F7F4FC1010E94243545
S2140041204AE0BE016A5F7F4F8B859C850E942435DE
S2140041308090A3309090A430A090A530B090A63088
S21400414040909F305090A0306090A1307090A23088
S214004150B8016451710980E090E00E946632A501C2
S21400416094010E9418339B01AC0160E070E08CE380
S21400417092E40E94643120E030E040E850E40E947F
S21400418064310E943A32162FB70180E090E00E9418
S2140041906632A30192010E9418330E943A32862F9B
S2140041A027EA30E340E0612F0E94E7108091DB248D
S2140041B0882391F09C859F938B858F933F922F92B7
S2140041C0FF92EF92DF92CF9281E593E29F938F93D7
S2140041D00E944F35CDBFDEBF80911620811152C0A0
S2140041E060E087EA90E30E940B1340E060E0C601BF
S2140041F0B0DE14E5612F9F85691B20E040E0CE010C
S21400420001960E94FB1220E040E06FE48BE190E212
S2140042100E94FB1248E060E0C7019BDE612F8889A0
S214004220681B20E048E0CE0106960E94FB1220E0C4
S21400423048E06FE48BE190E20E94FB1248E06EE1FA
S2140042408D859E8586DE8091E124813041F420E0D4
S21400425040E06EE182E994E20E94FB1211C08230D7
S21400426041F421E040E06EE188E994E20E94FB120E
S21400427007C020E040E06EE18FE994E20E94FB1266
S2140042800E94D4126096CDBFDEBFDF91CF911F9102
S2140042900F91FF90EF90DF90CF90BF90AF909F90E0
S2140042A08F907F906F905F904F903F902F900895E3
S2140042B06091912E7091922E80E090E00E9466327E
S2140042C09B01AC0160E070E086EA92E40E94CD318A
S2140042D060939F307093A0308093A1309093A2306B
S2140042E06091972E7091982E80E090E00E94663242
S2140042F09B01AC0160E070E080EC91E40E94CD315F
S2140043006093A3307093A4308093A5309093A6302A
S2140043101BCD0895682F70E0762F6627CB01A0E0AE
S214004320B0E0BC01CD0170528E4F9F4F0E94170621
S2140043300C943E060895462F50E0542F442760E024
S21400434070E050526E4F7F4F0C9400060895809197
S214004350F82581508093F825089580E0089580E040
S2140043600895809147338823CCF480768032B9F55F
S214004370809148338132A9F580914D3390914E3328
S214004380079789F5E7E4F3E386E096E2808791876E
S21400439087E090E08287938781E008958076803278
S2140043A021F580914833803221F0823201F180E09D
S2140043B0089580914D3390914E330797D1F4E7E4FA
S2140043C0F3E38BEF91E28487958786E096E2808719
S2140043D0918787E090E08287938781E0089580E068
S2140043E0089580E0089580E0089580E0089581E0D3
S2140043F0089580E0089508951092F82510920426F6
S21400440010920526EAEFF5E281EA808380E2818356
S214004410128213821482158282E090E0868397834C
S21400442010861186E6E0F6E280E092ECA1E0B0E0CD
S21400443080839183A283B3831482158288E0868367
S2140044400E949113882329F09091F8259F5F9093FE
S214004450F8250895FF920F931F93CF93DF931F9233
S214004460CDB7DEB78091E52481119EC00E94542C02
S214004470882351F00091E6241091E7240E94612CD5
S2140044800817190759F490C00091E6241091E72404
S2140044900E945C2C0817190709F486C08FB7898319
S2140044A0F89419810091E824E02FF0E0EE0FFF1F4A
S2140044B0E751FB4D80819181892B09F58091E2249B
S2140044C09091E32401968093E2249093E3240E9443
S2140044D0542C811107C08091E2249091E324843605
S2140044E0910558F00E94542C882349F08091E224CC
S2140044F09091E3248032934010F41FBF55C0109271
S214004500E2241092E3248091E424811106C081E025
S214004510011180E08093E82404C081E0011180E06E
S214004520082F81E08093E5241FBF10E0F801EE0F0E
S214004530FF1FE751FB4DFF24F39480819181803467
S214004540910509F4F12CFF2091F00E94542C882349
S21400455039F00E94612C8093E6249093E7240BC0E8
S2140045600E945C2C8093E6249093E72404C010926B
S214004570E6241092E724F801EE0FFF1FE751FB4DEB
S21400458020813181A80100245695479507945695B9
S21400459047950794542F402D42515B4D0EED12E285
S2140045A06F2D81E80E94452D0F90DF91CF911F91CE
S2140045B00F91FF90089580E04DCF089581111AC0A5
S2140045C02091E82481E090E0222311F080E090E042
S2140045D0880F991FFC01E751FB4D10821182109243
S2140045E0E4241092E524672B19F080E00E949D13C6
S2140045F080E030CF08958091F72581508093F7258D
S2140046008091F7250E9495131092F6250895CF9372
S214004610DF931F92CDB7DEB78FB78983F8944981B1
S21400462020916F2530917025E0917125F0E0EE0F16
S214004630FF1FEE58FA4D808191814FBF821B930B6E
S2140046400F90DF91CF910895E2DF21E0892B09F4E6
S21400465020E0822F08950F931F93CF93DF931F922E
S214004660CDB7DEB78FB78983F894998120917125ED
S21400467080916E25811110C060916F257091702514
S214004680022F10E0F801EE0FFF1FEE58FA4D4081A2
S21400469051816417750718F49FBF80E028C01092F8
S2140046A06F251092702581E0211180E0809371259E
S2140046B081E080936E259FBF80E0C6DF882319F0D7
S2140046C080E00E949813A801002456954795079409
S2140046D0569547950794542F402D4A585A4D0FEA41
S2140046E013E220E430E061E082E00E94452D0F9066
S2140046F0DF91CF911F910F9108951092F725109298
S214004700E5241092E4241092E824E9EEF4E2108204
S2140047101182128213821092E6241092E72480E01F
S21400472099DE10926E2510927125E2E7F5E210826E
S21400473011821282138210926F251092702580E0EB
S2140047408ADF882359F09091F7259F5F9093F7258D
S2140047509091F725913011F49093F62508950F93D4
S2140047601F93811129C080917125E1E08111E0E05D
S214004770842F61157105A9F4F0E00024F695E795FD
S2140047800794F695E7950794FE2FE02DAF014A585B
S2140047905A4D0FEA13E220E430E061E00E94452D16
S2140047A00BC0F0E0EE0FFF1FEE58FA4D60837183EA
S2140047B010926E2580E04FDF1F910F910895EF92C3
S2140047C0FF921F93CF93DF931F92CDB7DEB711E012
S2140047D080910C26893009F010E040E050E08FB759
S2140047E08983F894A98120916F2530917025809156
S2140047F0712590E0FC01EE0FFF1FEE58FA4D608128
S2140048007181AFBF2617370730F08091F6258111EA
S214004810E6CF90E021C0FC010024F695E7950794CA
S214004820F695E7950794FE2FE02DE20FF31FEA5862
S214004830FA4D80817A01E82A2F5F3F4F20936F253B
S2140048403093702580E007DF112321F05E2D44278A
S21400485010E0C5CF8E2D9F2D0F90DF91CF911F9129
S214004860FF90EF90089580E0AACF0895CF93DF934E
S2140048701F92CDB7DEB78FB78983F8949981809160
S214004880E824E82FF0E0EE0FFF1FE751FB4D2081F4
S21400489031812034310589F44091E52441110DC061
S2140048A04091E424411109C021E02093E4248111C1
S2140048B020E02093E82420E030E09FBF80E490E0F2
S2140048C0821B930B0F90DF91CF910895CFDF21E0ED
S2140048D0892B09F420E0822F0895FF920F931F93EF
S2140048E0CF93DF931F92CDB7DEB7F62E172F01E0DA
S2140048F080910C26893009F000E080E0E7DF811126
S21400490007C08091F6258111F8CF80E090E02DC099
S2140049108FB78983F8942981E091E824F0E0DF01DD
S214004920AA0FBB1FA751BB4D8D919C911197AC014F
S2140049304F5F5F4F4D935C930024F695E795079481
S214004940F695E7950794FE2FE02D8E0F9F1FFC012E
S214004950E251FB4DF0822FBF002329F0F12E110FFC
S214004960110B00E0CACF81E090E00F90DF91CF916D
S2140049701F910F91FF900895BC0180E0AECF08957F
S214004980E0911226F09113260190F081E02D22810D
S21400499033812E0F3F1FFC014081E40FF11DE2170B
S2140049A0F307B8F481818430B9F0861309C005C0D6
S2140049B081818430A1F0861303C08E2F9F2F089527
S2140049C08081E80FF11DE217F30790F380E090E096
S2140049D0089580E090E0089580E090E0089580E0FB
S2140049E090E00895809149338F7760C7089590913D
S2140049F01426992381F1E0911226F0911326019056
S214004A00F081E02D9481891740F5E0931026F0930D
S214004A101126228133812E0F3F1FE217F307F8F489
S214004A209181943061F49281981309C09381961312
S214004A3006C0E0931026F093112681E00895908139
S214004A40E90FF11DE217F30758F3E0931026F093F1
S214004A50112680E0089580E0089580E0089580E0C3
S214004A600895EF92FF921F93CF93DF93C82F60E0D5
S214004A70BEDF182F882381F1A0911226B09113264D
S214004A80EC2FF0E0EE0FFF1F12968D919C9113977E
S214004A90E80FF91FE080F180D7011696ED91FC91A2
S214004AA017971995682F8C2FA2DF182F8823A1F04F
S214004AB0C0911026D091112665E0CE0161DFEC0191
S214004AC0892B21F08A810E94552EF6CFD7011296A7
S214004AD0ED91FC9113971995812FDF91CF911F913E
S214004AE0FF90EF9008951F93CF93DF93182F7FDFEB
S214004AF0882339F1C0911026D091112665E0CE01A9
S214004B003FDFEC01892B41F04C815D816B818A810E
S214004B10E2D68111F3CF15C0A0911226B0911326CC
S214004B20E12FF0E0EE0FFF1F12968D919C911397E8
S214004B30E80FF91F0190F081E02D0190F081E02D43
S214004B401995DF91CF911F9108952CC60895CF93A4
S214004B50809114268823C1F0E0911226F091132646
S214004B600190F081E02D8481882371F0C0E08C2FC5
S214004B7078DFCF5FE0911226F09113260190F08146
S214004B80E02D8481C81798F31092142681E090E0F7
S214004B908093182690931926CF910895CF938091ED
S214004BA01426882349F1A0911226B0911326ED9180
S214004BB0FC91119784818823F9F0C0E0EC2FF0E097
S214004BC0EE0FFF1F12968D919C911397E80FF91F19
S214004BD00190F081E02D0084F185E02D309709F0FA
S214004BE01995CF5FA0911226B0911326ED91FC91F6
S214004BF011978481C81710F3CF9108950F931F93D0
S214004C00CF93DF93E7E4F3E31286138614861586C4
S214004C1016861786808188230CF063C220914D3358
S214004C2030914E332115310509F056C251C28F71AD
S214004C3009F0A7C090914833963079F0983009F47F
S214004C4096C091119EC02230310509F0CAC162E0BB
S214004C5070E088E196E238D64DC280914933909153
S214004C604A33292F332722303105A9F024F4213086
S214004C70310541F0ADC123303105D9F12F30310572
S214004C8051F1A6C18091822090918320DC016C9125
S214004C9070E01AD65DC0E0918220F09183202189D1
S214004CA0821708F09EC19927880F991F880F991FB1
S214004CB0E0918420F0918520E80FF91F8081918192
S214004CC0FC016281738100D6E0914F33F09150333E
S214004CD082E081833DC08091862090918720009756
S214004CE009F47FC1DC0112966D917C911397ECD587
S214004CF02FC099278130910591F058F082309105A8
S214004D0009F4F4C1039709F06CC127E086EA94E23F
S214004D1009C064E070E08EE790E2D6D519C08BE655
S214004D2090E222E1382FA4E3B0E2E82FF92F819138
S214004D3090E08D939D938E2F831B8217C0F3622F76
S214004D40660F6E5F6093322070E082E390E2BCD51F
S214004D50E7E4F3E3868197812285338582179307FC
S214004D6008F0C8C18093513390935233C3C12130A9
S214004D70310509F036C161E070E084E196E2A4D521
S214004D80B9C18130E1F5909148339A30C1F52130B0
S214004D90310509F026C180911426882309F421C123
S214004DA0C0914B33D0914C330091122610911326AC
S214004DB0D801ED91FC918481C81708F012C160E01B
S214004DC08C2F15DE882309F40CC1CE019927880F95
S214004DD0991FD8011296ED91FC911397E80FF91FD1
S214004DE00190F081E02D86819781FC0119958093D2
S214004DF0162661E070E086E196E266D57BC18230D9
S214004E0009F0EFC0809148338111E4C022303105AB
S214004E1009F0E7C080914B33E6D590E080930E26EC
S214004E2090930F2662E070E08EE096E24DD562C168
S214004E308F7109F083C090914833933009F4CCC049
S214004E4018F49130A1F07AC0953019F0993039F104
S214004E5075C080914D3390914E33892B09F0C1C0B7
S214004E6082EF94E2809353339093543343C18091FE
S214004E704D3390914E33892B09F0B3C0809149335E
S214004E8090914A33019709F0ACC080911826909112
S214004E9019268D7F80931826909319262BC1809112
S214004EA04D3390914E33892B09F09BC002D5882351
S214004EB009F497C02091493330914A333327E09163
S214004EC08220F0918320818990E08217930708F46E
S214004ED088C03DDE8091493390914A3380931426F2
S214004EE0882309F407C199278150904C880F991F91
S214004EF0880F991FE0918420F0918520E80FF91F14
S214004F00E0931226F09313260190F081E02D848121
S214004F10882309F4EFC0C0E060E08C2FE4DD88232E
S214004F2009F45FC0CF5FE0911226F091132601903E
S214004F30F081E02D8481C81778F3DCC08130E1F47D
S214004F40909148339B30C1F480914D3390914E330D
S214004F50892B09F046C080911426882309F441C0A5
S214004F60E7E4F3E3C481D2818C2F7BDD8823C9F18B
S214004F706D2F8C2FB8DD33C0823099F58091483381
S214004F80813019F0833089F029C080914D3390919B
S214004F904E33892B31F58091493390914A33892BD2
S214004FA001F580914B333AD51AC080914D339091DC
S214004FB04E33892BB1F48091493390914A33892B33
S214004FC081F4C7E4D3E38C8127D68C818AD607C0C8
S214004FD080E005C080E003C080E001C080E0811171
S214004FE08AC0809147338F71813071F58091142685
S214004FF0882351F100914B3310914C33C091122607
S214005000D0911326E881F98184810817E8F460E0DE
S214005010802FEDDC8823C1F0F801FF27CF01880F31
S214005020991FEA81FB81E80FF91FC081D181EE81CB
S214005030FF811995682F802FDADC882329F0EC8110
S214005040FD811995811157C0809147338F71823049
S21400505009F040C0809114268823B1F1A091122651
S214005060B0911326ED91FC9111978481882371F1FC
S214005070C0E0EC2FF0E0EE0FFF1F12968D919C9192
S2140050801397E80FF91F00811181D8011696ED914C
S214005090FC9117971995682F8C2FA9DC882359F156
S2140050A0D8011496ED91FC9115971995811123C09E
S2140050B0CF5FA0911226B0911326ED91FC91119727
S2140050C09481C917B0F217C080E015C080E013C005
S2140050D080E011C080E00FC0982F907609F081CF55
S2140050E0A6CD982F907609F07CCFA2CE22E188E557
S2140050F090E218CE81E0DF91CF911F910F91089535
S214005100CF93DF931F921F92CDB7DEB7811126C0D3
S214005110909144279923F9F090915833911101C04A
S214005120FFCF9FB79A83F8942A81E7E5F3E391814E
S214005130915091832FBF0FC0909158339F3F09F431
S214005140FFCF9FB79983F8942981E7E5F3E3918130
S2140051509F5F91832FBF8093442705C0909144277B
S214005160992351F3F8CF0F900F90DF91CF910895C8
S2140051700F93E8ECF4E080818F7D808380818F7DC3
S2140051808083E8E1F7E202E0059310921A27109276
S2140051901B2700E2069300E40693E0E1F7E200E452
S2140051A00693E7E4F3E314861586168617861286BA
S2140051B01386109203270F9108950F9385E080932E
S2140051C00327E9E1F7E204E00593E1E1F7E204E012
S2140051D005930F9108950F9383E080930327109211
S2140051E01A2710921B27E8E1F7E202E006930F91D8
S2140051F00895E0915333F0915433309709F01995A0
S21400520008950F93CF93DF9380910327833019F48B
S214005210F0DFAEDF5EC08091FF2690910027C09140
S2140052205133D0915233C81BD90B71F52091012709
S21400523030910227820F931F8093012790930227B5
S21400524020914D3330914E338217930721F0809191
S2140052501A26882341F084E080930327E0E1F7E2F2
S21400526002E0069336C0E0915533F09156333097FE
S21400527099F01995882381F01092FF261092002746
S214005280C0915133D0915233C034D10528F01092DA
S2140052901A26C0E4D0E003C081E080931A26E4E03A
S2140052A0F7E2C68BD78B8091FF269091002720913E
S2140052B04F3330915033280F391F208F318FC80F4E
S2140052C0D91FC093FF26D0930027E8E1F7E202E05B
S2140052D00693DF91CF910F910895FC018181E82F0D
S2140052E0E7708E2F90E0FC013197E730F105D8F497
S2140052F08827E250FF4F8F4F0C948F3380E190E069
S214005300089580E290E0089580E490E0089580E8B3
S21400531090E0089580E091E0089580E092E008959E
S2140053208FEF93E0089588E090E00895282F2F707F
S21400533030E0220F331F082E000C990B8827990F98
S214005340881F9927820F931F02979C01220F331FF5
S214005350220F331F220F331F820F931F8556994D3E
S21400536008950F93CF938091CC0480FF64C081E0B2
S2140053708093CC04E0E1F7E200E80693E8E1F7E288
S21400538000E806938093CA04E0E1F7E200E10693A2
S21400539080910327882329F08350823008F429DF80
S2140053A0E7DE8091122790911327089709F045C0F1
S2140053B088E0EFEBF6E2A7E4B3E301900D928A955E
S2140053C0E1F7E8ECF4E0808180628083808180628F
S2140053D0808314DCC82F811103C0EFDEC1E02EC02D
S2140053E08091473388236CF410920127109202278D
S2140053F01092FF261092002782E08093032701DF99
S2140054001DC080914D3390914E33892B11F4E3DE0D
S21400541015C010920127109202271092FF261092B4
S214005420002781E080930327E0E1F7E202E006939D
S21400543000E2069303C0C0E001C0C1E08C2FCF910C
S2140054400F9108958F929F92AF92BF92DF92EF9244
S214005450FF920F931F93CF93DF93D82E67DF8C01B5
S214005460BD2CBB1CBB24BB1CCD2DCF70D0E0CC0FFD
S214005470DD1FCB0DD11DCE01880F991F880F991FF8
S214005480880F991F9C01205F384D7901C90125DFDF
S2140054904C01BB2009F47BC0FE01EE0FFF1FEE0F90
S2140054A0FF1FEE0FFF1FEC5FF84D22893389D801EE
S2140054B015968D919C911697820F931F15968D9336
S2140054C09C93169713962D913C91149782179307E9
S2140054D009F447C0281B390B2115B4E03B0740F000
S2140054E02FEF33E0C901B4010E947B33281B390B30
S2140054F0F801808181FF0AC0C901B4010E947B3394
S21400550041E0892B09F040E0842F01C080E0D801FB
S2140055109C9180FB91F99C93FE01EE0FFF1FEE0F0E
S214005520FF1FEE0FFF1FEC5FF84D128A138A2687C7
S214005530378711962D913C91129715968D919C91D7
S2140055401697820F931FCC0FDD1FCC0FDD1FCC0FDD
S214005550DD1FCC5ED84D88839983F70102E0069361
S214005560E8C0D8018C9181FFD1C08D7F8C93CC0F81
S214005570DD1FCC0FDD1FCC0FDD1FCC5FD84D1A8A88
S2140055801B8A1E861F86F70102E00693D2C0FE0124
S214005590EE0FFF1FEE0FFF1FEE0FFF1FEC5FF84D25
S2140055A0A684B784D8018C9182FF1BC01196ED911A
S2140055B0FC91129715962D913C91169713968D9106
S2140055C09C911497B4010E947B33B0E4DB9EB0013B
S2140055D0112465527A4DAC01CF01820F931F0E94B1
S2140055E00B35F801258136812A0D3B1D2583368330
S2140055F0838194818217930768F485839683CC0F02
S214005600DD1FCC0FDD1FCC0FDD1FCC5FD84D8A8988
S2140056109B897CC0FE01EE0FFF1FEE0FFF1FEE0FF3
S214005620FF1FEC5FF84D428953894A155B0509F068
S2140056306DC02817390709F469C0AC01421B530B2B
S2140056409A01211554E0350758F02FEF33E0C901D1
S214005650B4010E947B33D901A81BB90BCD0108C049
S214005660C901B4010E947B33F901E81BF90BCF0195
S214005670FE01EE0FFF1FEE0FFF1FEE0FFF1FEC5F8A
S214005680F84D168617868815990500F5D8018C9171
S21400569084608C93B0E4DB9EC001112485529A4D41
S2140056A0FE01EE0FFF1FEE0FFF1FEE0FFF1FEC5E5B
S2140056B0F84D80839183CC0FDD1FCC0FDD1FCC0F00
S2140056C0DD1FCC5FD84D8A8A9B8A1CC0F8014181B9
S2140056D0528125813681240F351FFE01EE0FFF1FF4
S2140056E0EE0FFF1FEE0FFF1FEC5EF84D2083318399
S2140056F0CC0FDD1FCC0FDD1FCC0FDD1FCC5FD84DD0
S2140057008A8B9B8BF70102E0069313C0D8018C911D
S21400571080FF0FC08E7F8C931796ED91FC911897A3
S214005720309739F015966D917C9116974D2D80E047
S2140057301995DF91CF911F910F91FF90EF90DF9019
S214005740BF90AF909F908F9008951F93CF93DF9355
S2140057501F92CDB7DEB78FB78983F894198181E0A1
S214005760CFDCEAECF4E080E4808380E28083E1EC46
S214005770F4E0808181608083A9ECB4E08C91826043
S2140057808C93E8ECF4E08081806480838C91816067
S2140057908C938081806880831FBF0F90DF91CF91AC
S2140057A01F9108950F931F93CF93DF931F921F921D
S2140057B0CDB7DEB700E610E0F801108280E31ED514
S2140057C0E0ECF4E080818064808381E0F8018083EF
S2140057D08FB78A83F8941A81E4E0F7E21586158A73
S2140057E0158E15A215A615AAEBE9F6E280818E7F26
S2140057F08083E4EAF6E280818E7F8083EDEAF6E23B
S21400580080818E7F8083E6EBF6E280818E7F8083C8
S2140058106AE170E082E048D58F3F19F08093FA0481
S21400582003C08FE18093FA046BE170E082E03CD520
S2140058308F3F19F08093FB0403C08FE18093FB0435
S214005840E0ECF4E0808182608083808180688083E1
S21400585080818061808380E197E286839783808160
S214005860806280838FEF8093C504E8ECF4E080814B
S214005870816080831092442780915C338F3F09F4C7
S214005880FFCF8FB78983F8949981E7E5F3E38581A5
S2140058908F5F85839FBF59DF1FBF0F900F90DF91EB
S2140058A0CF911F910F91089580E008958093C304CF
S2140058B008958091C30408958091402790914127D0
S2140058C0089580E090E00895E7E4F3E38087918709
