S01E0000786D6567613132386134755F5553425F53657269616C2E7372656347
S113000004C1000027C1000025C1000023C1000075
S113001021C100001FC100001DC100001BC1000060
S113002019C1000017C1000015C1000013C1000070
S113003011C100000FC100000DC100000BC1000080
S113004009C1000007C1000005C1000003C1000090
S113005001C10000FFC00000FDC00000FBC00000A3
S1130060F9C00000F7C00000F5C00000F3C00000B4
S1130070F1C00000EFC00000EDC00000EBC00000C4
S1130080E9C00000E7C00000E5C00000E3C00000D4
S1130090E1C00000DFC00000DDC00000DBC00000E4
S11300A0D9C00000D7C00000D5C00000D3C00000F4
S11300B0D1C00000CFC00000CDC00000CBC0000004
S11300C0C9C00000C7C00000C5C00000C3C0000014
S11300D0C1C00000BFC00000BDC00000BBC0000024
S11300E0B9C00000B7C00000B5C00000B3C0000034
S11300F0B1C00000AFC00000ADC00000ABC0000044
S1130100A9C00000A7C00000A5C00000A3C0000053
S1130110A1C000009FC000009DC000009BC0000063
S113012099C0000097C0000095C0000093C0000073
S113013091C000008FC000008DC000008BC0000083
S113014089C0000087C0000085C0000083C0000093
S113015081C000007FC000007DC000007BC00000A3
S113016079C0000077C0000075C0000073C00000B3
S113017071C000006FC000006DC000006BC00000C3
S113018069C0000067C0000065C0000063C00000D3
S113019061C000005FC000005DC000005BC00000E3
S11301A059C0000057C0000055C0000053C00000F3
S11301B051C000004FC000004DC000004BC0000003
S11301C049C0000047C0000045C0000043C0000013
S11301D041C000003FC000003DC000003BC0000023
S11301E039C0000037C0000035C0000033C0000033
S11301F031C000000C94310E0C94F40E27092A0926
S11302002D09300933093609390911241FBECFEFEE
S1130210CDBFDFE3DEBF00E00CBF18BE19BE1ABEBF
S11302201BBE10E2A0E0B0E2ECE9F1E200E00BBF9B
S113023002C007900D92AE3DB107D9F71BBE23E271
S1130240AEEDB0E201C01D92AD35B207E1F71BD0AF
S11302500C94CC10D5CE90E039C30895E0ECF8E0CE
S1130260838382818381089581E008950895CF93E3
S1130270DF93A3D2EC01992729D38C2FEFDFDF91F1
S1130280CF9108950895F8940E94FC0F08D480ED4E
S11302908093C00880E090E28093592390935A237E
S11302A087E08093A2007894FFCF8091F42181505D
S11302B08093F421089580E0089580E0089580916A
S11302C041238823CCF480768032B9F5809142238F
S11302D08132A9F58091472390914823079789F5A6
S11302E0E1E4F3E282E092E28087918787E090E0A4
S11302F08287938781E008958076803221F580910A
S11303004223803221F0823201F180E0089580910D
S11303104723909148230797D1F4E1E4F3E289EA73
S113032091E08487958782E092E28087918787E0D5
S113033090E08287938781E0089580E0089580E0CB
S1130340089580E0089580E0089581E0089580E0B4
S1130350089508951092F42110920022109201221F
S1130360E6EFF1E281EA808380E2818312821382E4
S11303701482158282E090E086839783108611862A
S1130380E2E0F2E280E092ECA1E0B0E080839183CD
S1130390A283B3831482158288E0868365DF882371
S11303A029F09091F4219F5F9093F4210895FF9296
S11303B00F931F93CF93DF931F92CDB7DEB7809136
S11303C0E12081119EC00E94F70B882351F0009117
S11303D0E2201091E3200E94040C0817190759F435
S11303E090C00091E2201091E3200E94FF0B0817B7
S11303F0190709F486C08FB78983F894198100918D
S1130400E420E02FF0E0EE0FFF1FEB51FF4D808161
S11304109181892B09F58091DE209091DF2001964E
S11304208093DE209093DF200E94F70B811107C098
S11304308091DE209091DF208436910558F00E944F
S1130440F70B882349F08091DE209091DF208032E1
S1130450934010F41FBF55C01092DE201092DF208D
S11304608091E020811106C081E0011180E0809339
S1130470E42004C081E0011180E0082F81E0809332
S1130480E1201FBF10E0F801EE0FFF1FEB51FF4DFD
S1130490FF24F394808191818034910509F4F12C37
S11304A0FF2091F00E94F70B882339F00E94040C7E
S11304B08093E2209093E3200BC00E94FF0B809373
S11304C0E2209093E32004C01092E2201092E320F3
S11304D0F801EE0FFF1FEB51FF4D20813181A80180
S11304E00024569547950794569547950794542F9D
S11304F0402D46515F4D0BE812E06F2D81E80E94BC
S1130500E80C0F90DF91CF911F910F91FF90089508
S113051080E04DCF0895811119C02091E42081E03D
S113052090E0222311F080E090E0880F991FFC01F5
S1130530EB51FF4D108211821092E0201092E120C5
S1130540672B11F080E09EDE80E031CF089580912A
S1130550F32181508093F3218091F32187DE10925F
S1130560F2210895CF93DF931F92CDB7DEB78FB7F3
S11305708983F894498120916B2130916C21E09119
S11305806D21F0E0EE0FFF1FE259FE4D8081918155
S11305904FBF821B930B0F90DF91CF910895E2DF41
S11305A021E0892B09F420E0822F08950F931F93F3
S11305B0CF93DF931F92CDB7DEB78FB78983F894BB
S11305C0998120916D2180916A21811110C06091DF
S11305D06B2170916C21022F10E0F801EE0FFF1FC8
S11305E0E259FE4D408151816417750718F49FBF8D
S11305F080E027C010926B2110926C2181E02111C0
S113060080E080936D2181E080936A219FBF80E028
S1130610C6DF882311F080E02ADEA8010024569565
S113062047950794569547950794542F402D4E5857
S11306305E4D09E513E020E430E061E082E00E94D1
S1130640E80C0F90DF91CF911F910F9108951092B4
S1130650F3211092E1201092E0201092E420E5EEC4
S1130660F0E210821182128213821092E220109220
S1130670E32080E09CDE10926A2110926D21EEE668
S1130680F1E2108211821282138210926B21109275
S11306906C2180E08BDF882359F09091F3219F5FD8
S11306A09093F3219091F321913011F49093F221DE
S11306B008950F931F93811129C080916D21E1E06A
S11306C08111E0E0842F61157105A9F4F0E00024A4
S11306D0F695E7950794F695E7950794FE2FE02D98
S11306E0AF014E585E4D09E513E020E430E061E0CF
S11306F00E94E80C0BC0F0E0EE0FFF1FE259FE4D24
S11307006083718310926A2180E050DF1F910F9102
S11307100895EF92FF921F93CF93DF931F92CDB76B
S1130720DEB711E080910822893009F010E040E042
S113073050E08FB78983F894A98120916B2130917F
S11307406C2180916D2190E0FC01EE0FFF1FE259B6
S1130750FE4D60817181AFBF2617370730F080915D
S1130760F2218111E6CF90E021C0FC010024F6952E
S1130770E7950794F695E7950794FE2FE02DE20F91
S1130780F31FEE58FE4D80817A01E82A2F5F3F4F18
S113079020936B2130936C2180E008DF112321F03A
S11307A05E2D442710E0C5CF8E2D9F2D0F90DF9135
S11307B0CF911F91FF90EF90089580E0AACF089504
S11307C0CF93DF931F92CDB7DEB78FB78983F894A9
S11307D099818091E420E82FF0E0EE0FFF1FEB51A8
S11307E0FF4D208131812034310589F44091E1208D
S11307F041110DC04091E020411109C021E0209336
S1130800E020811120E02093E42020E030E09FBF2D
S113081080E490E0821B930B0F90DF91CF910895B9
S1130820CFDF21E0892B09F420E0822F0895FF9285
S11308300F931F93CF93DF931F92CDB7DEB7F62E9E
S1130840172F01E080910822893009F000E080E050
S1130850E7DF811107C08091F2218111F8CF80E098
S113086090E02DC08FB78983F8942981E091E4202A
S1130870F0E0DF01AA0FBB1FAB51BF4D8D919C91DE
S11308801197AC014F5F5F4F4D935C930024F69535
S1130890E7950794F695E7950794FE2FE02D8E0FC4
S11308A09F1FFC01E651FF4DF0822FBF002329F06A
S11308B0F12E110F110B00E0CACF81E090E00F90F0
S11308C0DF91CF911F910F91FF900895BC0180E0BB
S11308D0AECF0895E0910E22F0910F220190F081A5
S11308E0E02D228133812E0F3F1FFC014081E40F54
S11308F0F11DE217F307B8F481818430B9F086134F
S113090009C005C081818430A1F0861303C08E2FF5
S11309109F2F08958081E80FF11DE217F30790F3EC
S113092080E090E0089580E090E0089580E090E019
S1130930089580E090E00895809143238F7759C70C
S1130940089590911022992381F1E0910E22F09163
S11309500F220190F081E02D9481891740F5E093F6
S11309600C22F0930D22228133812E0F3F1FE217B8
S1130970F307F8F49181943061F49281981309C0DB
S11309809381961306C0E0930C22F0930D2281E02C
S113099008959081E90FF11DE217F30758F3E093EE
S11309A00C22F0930D2280E0089580E0089580E009
S11309B0089580E00895EF92FF921F93CF93DF9301
S11309C0C82F60E0BEDF182F882381F1A0910E228A
S11309D0B0910F22EC2FF0E0EE0FFF1F12968D91D5
S11309E09C911397E80FF91FE080F180D7011696C8
S11309F0ED91FC9117971995682F8C2FA2DF182F72
S1130A008823A1F0C0910C22D0910D2265E0CE0183
S1130A1061DFEC01892B21F08A810E94F80DF6CF69
S1130A20D7011296ED91FC9113971995812FDF91BF
S1130A30CF911F91FF90EF9008951F93CF93DF9371
S1130A40182F7FDF882339F1C0910C22D0910D2219
S1130A5065E0CE013FDFEC01892B41F04C815D81E3
S1130A606B818A81DBD68111F3CF15C0A0910E2250
S1130A70B0910F22E12FF0E0EE0FFF1F12968D913F
S1130A809C911397E80FF91F0190F081E02D0190DC
S1130A90F081E02D1995DF91CF911F91089525C61E
S1130AA00895CF93809110228823C1F0E0910E2203
S1130AB0F0910F220190F081E02D8481882371F060
S1130AC0C0E08C2F78DFCF5FE0910E22F0910F22EF
S1130AD00190F081E02D8481C81798F310921022C0
S1130AE081E090E08093142290931522CF91089591
S1130AF0CF9380911022882349F1A0910E22B091C6
S1130B000F22ED91FC91119784818823F9F0C0E0C4
S1130B10EC2FF0E0EE0FFF1F12968D919C9113972E
S1130B20E80FF91F0190F081E02D0084F185E02D9C
S1130B30309709F01995CF5FA0910E22B0910F2242
S1130B40ED91FC9111978481C81710F3CF9108950A
S1130B500F931F93CF93DF93E1E4F3E2128613869E
S1130B601486158616861786808188230CF063C246
S1130B7020914723309148232115310509F056C2AD
S1130B8051C28F7109F0A7C090914223963079F039
S1130B90983009F496C091119EC02230310509F0B5
S1130BA0CAC162E070E084E192E231D64DC2809124
S1130BB0432390914423292F332722303105A9F070
S1130BC024F42130310541F0ADC123303105D9F190
S1130BD02F30310551F1A6C180917220909173207C
S1130BE0DC016C9170E013D65DC0E0917220F0914D
S1130BF073202189821708F09EC19927880F991FB5
S1130C00880F991FE0917420F0917520E80FF91F67
S1130C1080819181FC0162817381F9D5E09149233E
S1130C20F0914A2382E081833DC0809176209091A7
S1130C307720009709F47FC1DC0112966D917C91B5
S1130C401397E5D52FC099278130910591F058F07D
S1130C508230910509F4F4C1039709F06CC127E0CF
S1130C6086ED90E209C064E070E08EE690E2CFD5B4
S1130C7019C08BE590E222E1382FA4E2B0E2E82F1C
S1130C80F92F819190E08D939D938E2F831B821772
S1130C90C0F3622F660F6E5F6093222070E082E2E1
S1130CA090E2B5D5E1E4F3E286819781228533852C
S1130CB08217930708F0C8C180934B2390934C2369
S1130CC0C3C12130310509F036C161E070E080E133
S1130CD092E29DD5B9C18130E1F5909142239A30D9
S1130CE0C1F52130310509F026C1809110228823F5
S1130CF009F421C1C0914523D091462300910E22CD
S1130D0010910F22D801ED91FC918481C81708F04D
S1130D1012C160E08C2F15DE882309F40CC1CE01CA
S1130D209927880F991FD8011296ED91FC9113977A
S1130D30E80FF91F0190F081E02D86819781FC0175
S1130D4019958093122261E070E082E192E25FD50E
S1130D507BC1823009F0EFC0809142238111E4C04D
S1130D602230310509F0E7C080914523DFD590E0BA
S1130D7080930A2290930B2262E070E08AE092E270
S1130D8046D562C18F7109F083C09091422393309C
S1130D9009F4CCC018F49130A1F07AC0953019F060
S1130DA0993039F175C08091472390914823892B5C
S1130DB009F0C1C08CE994E080934D2390934E23B5
S1130DC043C18091472390914823892B09F0B3C0F4
S1130DD08091432390914423019709F0ACC0809102
S1130DE01422909115228D7F8093142290931522C2
S1130DF02BC18091472390914823892B09F09BC0F4
S1130E00FBD4882309F497C02091432330914423D1
S1130E103327E0917220F0917320818990E082174A
S1130E20930708F488C03DDE8091432390914423C6
S1130E3080931022882309F407C199278150904C8C
S1130E40880F991F880F991FE0917420F0917520E5
S1130E50E80FF91FE0930E22F0930F220190F08126
S1130E60E02D8481882309F4EFC0C0E060E08C2F7A
S1130E70E4DD882309F45FC0CF5FE0910E22F09196
S1130E800F220190F081E02D8481C81778F3DCC033
S1130E908130E1F4909142239B30C1F48091472347
S1130EA090914823892B09F046C080911022882311
S1130EB009F441C0E1E4F3E2C481D2818C2F7BDDEB
S1130EC08823C9F16D2F8C2FB8DD33C0823099F59A
S1130ED080914223813019F0833089F029C08091B8
S1130EE0472390914823892B31F580914323909196
S1130EF04423892B01F58091452333D51AC0809171
S1130F00472390914823892BB1F4809143239091F6
S1130F104423892B81F4C1E4D3E28C8120D68C81D3
S1130F2083D607C080E005C080E003C080E001C034
S1130F3080E081118AC0809141238F71813071F5E5
S1130F4080911022882351F100914523109146236A
S1130F50C0910E22D0910F22E881F9818481081773
S1130F60E8F460E0802FEDDC8823C1F0F801FF276E
S1130F70CF01880F991FEA81FB81E80FF91FC08117
S1130F80D181EE81FF811995682F802FDADC8823C7
S1130F9029F0EC81FD811995811157C0809141237D
S1130FA08F71823009F040C0809110228823B1F102
S1130FB0A0910E22B0910F22ED91FC9111978481A2
S1130FC0882371F1C0E0EC2FF0E0EE0FFF1F1296C2
S1130FD08D919C911397E80FF91F00811181D8011D
S1130FE01696ED91FC9117971995682F8C2FA9DC13
S1130FF0882359F1D8011496ED91FC911597199510
S1131000811123C0CF5FA0910E22B0910F22ED91E8
S1131010FC9111979481C917B0F217C080E015C0F4
S113102080E013C080E011C080E00FC0982F90765C
S113103009F081CFA6CD982F907609F07CCFA2CE6F
S113104022E188E490E218CE81E0DF91CF911F91F4
S11310500F910895CF93DF931F921F92CDB7DEB700
S1131060811126C0909140239923F9F09091522345
S1131070911101C0FFCF9FB79A83F8942A81E1E5CB
S1131080F3E29181915091832FBF0FC0909152232D
S11310909F3F09F4FFCF9FB79983F8942981E1E535
S11310A0F3E291819F5F91832FBF8093402305C01A
S11310B090914023992351F3F8CF0F900F90DF9133
S11310C0CF9108950F93E8ECF4E080818F7D8083C5
S11310D080818F7D8083E4E1F3E202E00593109246
S11310E016231092172300E2069300E40693ECE023
S11310F0F3E200E40693E1E4F3E21486158616862F
S11311001786128613861092FF220F9108950F936B
S113111085E08093FF22E5E1F3E204E00593EDE04E
S1131120F3E204E005930F9108950F9383E0809315
S1131130FF221092162310921723E4E1F3E202E057
S113114006930F910895E0914D23F0914E2330972B
S113115009F0199508950F93CF93DF938091FF229F
S1131160833019F4F0DFAEDF5EC08091FB229091F2
S1131170FC22C0914B23D0914C23C81BD90B71F591
S11311802091FD223091FE22820F931F8093FD2235
S11311909093FE222091472330914823821793078E
S11311A021F080911622882341F084E08093FF226D
S11311B0ECE0F3E202E0069336C0E0914F23F091B5
S11311C05023309799F01995882381F01092FB22CF
S11311D01092FC22C0914B23D0914C23C034D105F2
S11311E028F010921622C0E4D0E003C081E080937E
S11311F01622E0E0F3E2C68BD78B8091FB2290911C
S1131200FC222091492330914A23280F391F208F33
S1131210318FC80FD91FC093FB22D093FC22E4E185
S1131220F3E202E00693DF91CF910F910895FC0160
S11312308181E82FE7708E2F90E0FC013197E73031
S1131240F105D0F48827E250FF4F8F4F93C780E118
S113125090E0089580E290E0089580E490E008959D
S113126080E890E0089580E091E0089580E092E0C5
S113127008958FEF93E0089588E090E00895282F73
S11312802F7030E0220F331F082E000C990B882793
S1131290990F881F9927820F931F02979C01220F91
S11312A0331F220F331F220F331F820F931F8956C0
S11312B09D4D08950F93CF938091CC0480FF64C01B
S11312C081E08093CC04ECE0F3E200E80693E4E1EF
S11312D0F3E200E806938093CA04ECE0F3E200E151
S11312E006938091FF22882329F08350823008F4EA
S11312F02ADFE8DE80910E2390910F23089709F0EE
S113130045C088E0EBEBF2E2A1E4B3E201900D9278
S11313108A95E1F7E8ECF4E0808180628083808143
S11313208062808315DCC82F811103C0F0DEC1E028
S11313302EC08091412388236CF41092FD221092D8
S1131340FE221092FB221092FC2282E08093FF2264
S113135002DF1DC08091472390914823892B11F40B
S1131360E4DE15C01092FD221092FE221092FB22A0
S11313701092FC2281E08093FF22ECE0F3E202E091
S1131380069300E2069303C0C0E001C0C1E08C2FC5
S1131390CF910F9108958F929F92AF92BF92DF9257
S11313A0EF92FF920F931F93CF93DF93D82E67DFB3
S11313B08C01BD2CBB1CBB24BB1CCD2DCF70D0E03D
S11313C0CC0FDD1FCB0DD11DCE01880F991F880FC7
S11313D0991F880F991F9C01245F3C4D7901C90115
S11313E026DF4C01BB2009F479C0FE01EE0FFF1F7C
S11313F0EE0FFF1FEE0FFF1FE050FD4D22893389D2
S1131400D80115968D919C911697820F931F15966E
S11314108D939C93169713962D913C911497821754
S1131420930709F445C0281B390B2115B4E03B0789
S113143038F02FEF33E0C901B40188D6281B390BEB
S1131440F801808181FF09C0C901B4017FD641E060
S1131450892B09F040E0842F01C080E0D8019C91E1
S113146080FB91F99C93FE01EE0FFF1FEE0FFF1F0F
S1131470EE0FFF1FE050FD4D128A138A268737872F
S113148011962D913C91129715968D919C911697DA
S1131490820F931FCC0FDD1FCC0FDD1FCC0FDD1F80
S11314A0C05FDC4D88839983F70102E00693E4C0B2
S11314B0D8018C9181FFCDC08D7F8C93CC0FDD1F23
S11314C0CC0FDD1FCC0FDD1FC050DD4D1A8A1B8AE7
S11314D01E861F86F70102E00693CEC0FE01EE0FC2
S11314E0FF1FEE0FFF1FEE0FFF1FE050FD4DA68400
S11314F0B784D8018C9182FF19C01196ED91FC91AB
S1131500129715962D913C91169713968D919C9157
S11315101497B4011BD6B0E4DB9EB00111246952C8
S11315207E4DAC01CF01820F931F2DD6F80125818A
S113153036812A0D3B1D258336838381948182174E
S1131540930768F485839683CC0FDD1FCC0FDD1FD2
S1131550CC0FDD1FC050DD4D8A899B897AC0FE0106
S1131560EE0FFF1FEE0FFF1FEE0FFF1FE050FD4DAC
S1131570428953894A155B0509F06BC0281739075E
S113158009F467C0AC01421B530B9A01211554E0C6
S1131590350750F02FEF33E0C901B401D7D5D90195
S11315A0A81BB90BCD0107C0C901B401CFD5F901FE
S11315B0E81BF90BCF01FE01EE0FFF1FEE0FFF1F1B
S11315C0EE0FFF1FE050FD4D16861786881599050E
S11315D000F5D8018C9184608C93B0E4DB9EC0014B
S11315E0112489529E4DFE01EE0FFF1FEE0FFF1FC7
S11315F0EE0FFF1FE05FFC4D80839183CC0FDD1F56
S1131600CC0FDD1FCC0FDD1FC050DD4D8A8A9B8AB5
S11316101CC0F8014181528125813681240F351F78
S1131620FE01EE0FFF1FEE0FFF1FEE0FFF1FE05F27
S1131630FC4D20833183CC0FDD1FCC0FDD1FCC0F7D
S1131640DD1FC050DD4D8A8B9B8BF70102E00693B2
S113165013C0D8018C9180FF0FC08E7F8C93179696
S1131660ED91FC911897309739F015966D917C9116
S113167016974D2D80E01995DF91CF911F910F9111
S1131680FF90EF90DF90BF90AF909F908F90089560
S11316901F93CF93DF931F92CDB7DEB78FB78983A4
S11316A0F894198181E0D6DCEAECF4E080E48083EC
S11316B080E28083E1ECF4E0808181608083A9ECA6
S11316C0B4E08C9182608C93E8ECF4E080818064D7
S11316D080838C9181608C938081806880831FBF1C
S11316E00F90DF91CF911F9108950F931F93CF9384
S11316F0DF931F921F92CDB7DEB700E610E0F8012A
S1131700108280E3CED4E0ECF4E0808180648083B6
S113171081E0F80180838FB78A83F8941A81E0E02E
S1131720F3E21586158A158E15A215A615AAE7E902
S1131730F2E280818E7F8083E0EAF2E280818E7F14
S11317408083E9EAF2E280818E7F8083E2EBF2E239
S113175080818E7F80836AE170E082E0E7D48F3FEE
S113176019F08093FA0403C08FE18093FA046BE1CB
S113177070E082E0DBD48F3F19F08093FB0403C058
S11317808FE18093FB04E0ECF4E08081826080834D
S11317908081806880838081806180838CE093E293
S11317A0868397838081806280838FEF8093C504D2
S11317B0E8ECF4E080818160808310924023809182
S11317C056238F3F09F4FFCF8FB78983F89499810B
S11317D0E1E5F3E285818F5F85839FBF59DF1FBFFA
S11317E00F900F90DF91CF911F910F91089580E09A
S11317F008958093C30408958091C304089580914B
S11318003C2390913D23089580E090E00895E1E425
S1131810F3E280879187628773870895282F2F705A
S113182030E0220F331F082E000C990B8827990FE4
S1131830881F9927820F931FFC01EE0FFF1FEE0FE5
S1131840FF1FEE0FFF1FE050FD4D2585207C09F0A2
S113185069C06370613011F018F404C020EC03C057
S113186020E801C020E440385105E9F050F440324A
S11318705105A9F040345105A1F040315105D9F486
S11318800CC0411532E0530791F04F3F33E053074A
S113189081F04115514079F408C041E00DC042E0A7
S11318A00BC043E009C044E007C045E005C046E082
S11318B003C047E001C040E0FC01EE0FFF1FEE0F44
S11318C0FF1FEE0FFF1FE050FD4D158636E03487F5
S11318D0242B2587FC01EE0FFF1FEE0FFF1FEE0FD9
S11318E0FF1FE050FD4D2585207C203C69F4FC0160
S11318F0EE0FFF1FEE0FFF1FEE0FFF1FE050FD4D19
S113190025852770273081F0880F991F880F991F2C
S1131910880F991FFC01E050FD4D85858062858705
S113192081E0089580E0089581E00895E82FEF7044
S1131930F0E0EE0FFF1F082E000C990B8827990F7B
S1131940881F9927E80FF91FEE0FFF1FEE0FFF1FE7
S1131950EE0FFF1FE050FD4D858582FB882780F93F
S113196008950F93282F2F7030E0A901440F551FBD
S1131970282F082E000C330B2227330F221F332766
S1131980240F351FA901440F551F440F551F440F41
S1131990551FFA01E45FFC4D01E00693FA01E050A3
S11319A0FD4D958592FF11C0FA01E050FD4D9585DE
S11319B09B7F958764DCFC01808180FF06C08E7F5D
S11319C080830780F085E02D199581E00F910895BB
S11319D05F926F927F928F929F92AF92BF92CF92BB
S11319E0DF92EF92FF920F931F93CF93DF931F9297
S11319F0CDB7DEB7782E662E4A01590140DC6C0162
S1131A00572C551C5524551C872D8F70E82EF12C0E
S1131A10EE0CFF1CE50CF11CF701EE0FFF1FEE0F9F
S1131A20FF1FEE0FFF1FE050FD4D8585807C09F4FC
S1131A3081C0F701EE0FFF1FEE0FFF1FEE0FFF1F18
S1131A40E050FD4D8585807C803C61F0F701EE0F10
S1131A50FF1FEE0FFF1FEE0FFF1FE050FD4D8585AA
S1131A6082FD6AC08FB78983F8948981F6019081D9
S1131A7090FF03C08FBF512C60C0F601908191602C
S1131A8090838FBF81829282A382B4821582168250
S1131A9007831087611006C091E0A114B10419F006
S1131AA090E001C091E0F601808190FB81F98B7F89
S1131AB08083552061F0F701EE0FFF1FEE0FFF1F2B
S1131AC0EE0FFF1FE050FD4D128A138A2EC0F7015E
S1131AD0EE0FFF1FEE0FFF1FEE0FFF1FE050FD4D37
S1131AE08585807C803CA1F4C701880F991F880FED
S1131AF0991F880F991F845F9C4D99DBBC01C50118
S1131B0025D3892B29F0F60180818E7F808315C02F
S1131B10F701EE0FFF1FEE0FFF1FEE0FFF1FE05048
S1131B20FD4D16861786128A138A872D34DC5524B8
S1131B30539403C0512C01C0512C852D0F90DF917B
S1131B40CF911F910F91FF90EF90DF90CF90BF90B6
S1131B50AF909F908F907F906F905F900895FF92C9
S1131B600F931F93CF93DF93182FF82EFF1CFF249E
S1131B70FF1CC82FCF70D0E0CC0FDD1FCF0DD11DBF
S1131B807EDBDC01FE01EE0FFF1FEE0FFF1FEE0FE9
S1131B90FF1FE45FFC4D02E005938C9180FF22C09F
S1131BA08E7F8C931796ED91FC9118973097D1F016
S1131BB0FF2059F0CC0FDD1FCC0FDD1FCC0FDD1F34
S1131BC0C050DD4D6A897B890AC0CC0FDD1FCC0F64
S1131BD0DD1FCC0FDD1FC050DD4D6E857F85412F8D
S1131BE081E01995DF91CF911F910F91FF90089596
S1131BF0CF93C82FB4DFEC2FEF70F0E0EE0FFF1F90
S1131C008C2FCC0F990B8827990F881F9927E80FE1
S1131C10F91FEE0FFF1FEE0FFF1FEE0FFF1FE05027
S1131C20FD4D1586CF910895E82FEF70F0E0EE0F8B
S1131C30FF1F282F082E000C330B2227330F221FDF
S1131C403327E20FF31FEE0FFF1FEE0FFF1FEE0F00
S1131C50FF1FE050FD4D95859460958780DF81E0FE
S1131C6008951F920F920FB60F92112408B60F9287
S1131C7018BE09B60F9219BE0BB60F921BBE0F9376
S1131C802F933F934F935F936F937F938F939F9380
S1131C90AF93BF93EF93FF938091CB04882334F4E5
S1131CA080E88093CA040E94780586C08091CB04A2
S1131CB082FF20C084E08093CA048091142386FFAD
S1131CC07BC08091CC0481FD77C0F4DA811174C0AB
S1131CD08091FF22813011F428DA6EC0843009F03B
S1131CE06BC0E5E1F3E204E00593EDE0F3E204E028
S1131CF0059362C08091CB0481FF59C082E0809338
S1131D00CA0480910C2386FF57C08091CC0481FDC6
S1131D1053C0D0DA811150C08091FF22823041F447
S1131D2084E08093FF22ECE0F3E202E0069344C0F7
S1131D30833009F041C0E5E1F3E204E00593EDE00E
S1131D40F3E204E0059338C080E18093CA0481E0A3
S1131D5006DF81E804DF82E002DF82E800DF0E9420
S1131D6051051092C304E0E0F3E2158696E09487EF
S1131D7083E48587158A948B858B8BEB92E2808B29
S1131D80918BA0D919C08091CB0486FF06C080E452
S1131D908093CA0480E05ED90FC08091CB0485FF94
S1131DA00BC080E28093CA0481E054D905C08091BD
S1131DB0CB0484FDC9CFE7CFFF91EF91BF91AF91E1
S1131DC09F918F917F916F915F914F913F912F914F
S1131DD00F910F900BBE0F9009BE0F9008BE0F908D
S1131DE00FBE0F901F9018951F920F920FB60F926F
S1131DF0112408B60F9218BE09B60F9219BE0AB67E
S1131E000F921ABE0BB60F921BBE0F931F932F9304
S1131E103F934F935F936F937F938F939F93AF936E
S1131E20BF93CF93DF93EF93FF938091CC0481FD15
S1131E3003C040DA8111C3C082E08093CC04809156
S1131E40C5048195880FECE0F3E2E81BF1092081D9
S1131E5031812C5033423695279536952795369502
S1131E602795822F869520FD02C090E001C090E85E
S1131E70890FE82FEF70F0E0EE0FFF1F282F082ED8
S1131E80000C330B2227330F221F3327E20FF31FDB
S1131E90DF01AA0FBB1FAA0FBB1FAA0FBB1FA050B5
S1131EA0BD4D1C969C9195FF8AC0EE0FFF1FEE0F4F
S1131EB0FF1FEE0FFF1FE45FFC4D00E2069381114C
S1131EC079C08091FF22843019F43DD9FBD877C0C2
S1131ED000910E2310910F2380914B2390914C235A
S1131EE0C091FB22D091FC229E01200F311F82174A
S1131EF0930718F48C010C1B1D0B809149239091BE
S1131F004A23A8016BEB72E28C0F9D1F3CD1C00FDA
S1131F10D11FC093FB22D093FC220034110569F435
S1131F208091FD229091FE228C0F9D1F20914723CA
S1131F30309148238217930780F0E1E4F3E2C287EB
S1131F40D3870684F785E02D309729F01995811100
S1131F5002C0DDD834C0E9D832C080914B239091BF
S1131F604C23C817D907F9F4E0914F23F09150237B
S1131F70309711F4CCD823C01995811102C0C7D869
S1131F801EC02091FD223091FE228091FB2290916F
S1131F90FC22820F931F8093FD229093FE221092C5
S1131FA0FB221092FC22ECE0F3E202E0069300E252
S1131FB0069305C0803811F4CED801C0ECD9FF9146
S1131FC0EF91DF91CF91BF91AF919F918F917F91CD
S1131FD06F915F914F913F912F911F910F910F90AE
S1131FE00BBE0F900ABE0F9009BE0F9008BE0F9053
S1131FF00FBE0F901F901895CF93DF93CDB7DEB728
S11320002597CDBFDEBF6CE170E082E08FD08A837C
S11320106DE170E082E08AD0898389819A8101969A
S113202021F480E493E289839A8389819A818B8362
S11320309C83E0E6F0E082838C818383809151006D
S113204084FD0FC08FB78D83F8949D81E0E5F0E0A7
S113205080E185838081806180839FBF818184FF4B
S1132060FDCF64E080E490E06BD02596CDBFDEBF69
S1132070DF91CF910895CF93DF931F92CDB7DEB751
S11320809FB79983F8949981E82FF0E0E059FF4FC6
S113209060958081682360839FBF0F90DF91CF910B
S11320A00895CF93DF931F921F92CDB7DEB786308A
S11320B011F060E001C068E18091510081FD2AC007
S11320C08FB78A83F8949A81E0E5F0E0808182609A
S11320D080839FBF818181FFFDCF8FB78983F8946F
S11320E09981A0E5B0E016968C911697897F169693
S11320F08C931697E0E6F0E080E885838BEB86838B
S113210016968C911697846016968C9380818160C4
S113211080839FBF636084E490E012D060E480E039
S1132120AADF0F900F90DF91CF9108954091CA01DB
S1132130E62FF72F8093CA0184914093CA01089532
S11321401BBEFC0128ED24BF60830895AA1BBB1BA2
S113215051E107C0AA1FBB1FA617B70710F0A61BA3
S1132160B70B881F991F5A95A9F780959095BC01C4
S1132170CD010895EE0FFF1F881F8BBF0790F691C6
S1132180E02D1BBE1994FB01DC0102C001900D92ED
S10F219041505040D8F70895F894FFCF58
S113219C00000002000000002B01000000002703D7
S11321ACA7025B015D018802AA0155015F015D0173
S11321BC000000030000000000000000000000000C
S11321CC00000000000000000000000000000000FF
S11321DC0000000000000000444959205265666C60
S11321EC6F77204F76656E205631005468654169CF
S11321FC6D6C657373456C656374726F6E00040368
S113220C0904C4207820000080207C2018200E2093
S113221C09024300020100C000090400000102028B
S113222C0100052400100104240202052406000107
S113223C0524010301070582034000100904010071
S113224C020A000000070581024000000705020293
S113225C400000001201000202000040EB030424C1
S111226C00010102030131322E2E2E454600E0
S9030000FC
